:020000041000EA
:1000000000B5324B212058609868022188439860DF
:10001000D860186158612E4B002199600221596106
:100020000121F02299502B49196001219960352056
:1000300000F044F80222904214D00621196600F024
:1000400034F8196E01211966002018661A6600F04E
:100050002CF8196E196E196E052000F02FF8012189
:100060000842F9D1002199601B49196000215960AB
:100070001A491B48016001219960EB211966A021F2
:10008000196600F012F800219960164914480160C1
:100090000121996001BC002800D000471248134993
:1000A000086003C880F30888084703B5996A0420EC
:1000B0000142FBD001200142F8D103BD02B5186610
:1000C0001866FFF7F2FF186E186E02BD00000240BE
:1000D000000000180000070000035F00212200005C
:1000E000F4000018222000A00001001008ED00E03C
:1000F00000000000000000000000000074B24E7A12
:1001000000200420F7010010C3010010C5010010F9
:10011000C1010010C1010010C1010010C101001097
:10012000C1010010C1010010C1010010C701001081
:10013000C1010010C1010010C9010010CB01001065
:10014000CD010010CD010010CD010010CD01001037
:10015000CD010010CD010010CD010010CD01001027
:10016000CD010010CD010010CD010010CD01001017
:10017000CD010010CD010010CD010010CD01001007
:10018000CD010010CD010010CD010010CD010010F7
:10019000CD010010CD010010CD010010CD010010E7
:1001A000CD010010CD010010CD010010CD010010D7
:1001B000CD010010CD010010CD010010CD010010C7
:1001C00000BE00BE00BE00BE00BE00BEEFF3058054
:1001D000103800BEF2EB887194110110BC110110AF
:1001E0003402001090A31AE700201F49086006C8D7
:1001F00081F3088810471D48006800282FD10DA4FE
:100200000ECC002902D000F012F8F9E71849194A7B
:10021000002000E001C19142FCD1174988471749ED
:1002200088471749884700BEFDE701C901C29A42C5
:10023000FBD37047BC110110C0000020E00D00206E
:10024000E81E01100000042000000420E81E011038
:10025000001004200010042000000000704709482E
:1002600006F0CCFD0047000008ED00E0000000D0E3
:10027000F00D002000900220555B00107935001031
:10028000115B00105756000006005250ABB360538C
:10029000BC05011006005250861C0302CC0501105B
:1002A000060052505422A29DDC0501100500525058
:1002B000DE65F468E81E0110F8B5C04610B5064CBE
:1002C0002378002B07D1054B002B02D0044800E017
:1002D00000BF0123237010BDB80F002000000000F4
:1002E00060E50010044B10B5002B03D0034904480F
:1002F00000E000BF10BDC04600000000BC0F0020A1
:1003000060E5001070B50368002B1BD1314B1B68F2
:10031000002B18D1304B00221A60304C2E4B1B683A
:100320002F4A12689342F5DA5A00D3189B002B4AE1
:10033000D3189B6820009847274A1368013313603D
:100340000C34EBE79F46012B1BD0002303600320F6
:1003500070BD214C234923689B005A5801325A50E2
:1003600004F03CFE204B1A685B68801A99412268B1
:10037000D2001E4B9B181C685D680019694118600B
:1003800059601B4A136801331360134B00221A6033
:10039000124C114B1A68124B1B689A42F1DA154D38
:1003A00000232B6004F01AFE0F4B186059600A4BB3
:1003B0001A6853009B189B00084AD3189B682000BA
:1003C00098472B68012BC4D0034A1368013313608C
:1003D0000C34DEE73419002008190020881A0020A8
:1003E0000C1A0020301B0020B00F0020500F0020FE
:1003F000041B00202819002070B50368002B1BD1B6
:10040000314B1B68002B18D1304B00221A60304C46
:100410002E4B1B682F4A12689342F5DA5A00D31804
:100420009B002B4AD3189B6820009847274A1368E3
:10043000013313600C34EBE79F46012B1BD00023E4
:100440000360032070BD214C234923689B005A5848
:1004500001325A5004F0C2FD204B1A685B68801AC2
:1004600099412268D2001E4B9B181C685D680019D8
:100470006941186059601B4A136801331360134BBC
:1004800000221A60124C114B1A68124B1B689A42D8
:10049000F1DA154D00232B6004F0A0FD0F4B18601E
:1004A00059600A4B1A6853009B189B00084AD318DE
:1004B0009B68200098472B68012BC4D0034A13681F
:1004C000013313600C34DEE73419002004190020D6
:1004D000101A0020081A0020081B0020A80F002076
:1004E000000F0020001B00202419002010B504007C
:1004F00001230268002A05D0224A2260002B0CD179
:10050000012010BD192003F063FDD0231B068022BB
:1005100092045A625A610023EEE704F05FFD1A4B21
:100520001A685B688B42EBD801D18242E8D8D023AD
:100530001B061B68012B1AD0144B01221A6004F011
:100540004DFD134A0023801859410F4B1860596024
:10055000104A137801214B40DBB21370002B0AD0F4
:10056000D0231B06802292045A610023C4E70A4B61
:1005700001221A60E3E7D0231B06802292049A61CD
:100580000023B9E7F8040010F80E00202419002019
:10059000A0860100F88F02202819002070B582B0D3
:1005A000040001220368002B00D09F466422002132
:1005B000BF4808F0C5F9BF4B00221A60BE4B9B69CB
:1005C00010210A001A40194200D041E16B46D91DA2
:1005D000002AF3D1B84B9B69DB06FBD4B64B1B68F2
:1005E0000B7001320131F3E7B44B0F39196049E167
:1005F000B14B1B680B7001320131002A04D1AE4BA4
:100600009B69DB06FBD4F3E76B46DA79AC4B1A70D7
:100610000022AC4B2360002A00D13EE1A64B9B692F
:100620002022110019401A4200D038E1D0231B06C5
:100630001B68012B18D0A44B01221A60A04B1E7816
:10064000A24B00229B5EB34212D06B46DA1D16709D
:1006500000291FD1984B9B699B06FBD41078964BC1
:10066000186001310132F3E7944B1F3A1A60E5E755
:100670006B46DA1D0D231370080004E015788E4BCD
:100680001D60013001320028DFD18B4B9B699B0636
:10069000FBD4F3E78A4B1B780D2B08D07F2B50D06F
:1006A00084490A68501C086081498B54D0E0814B12
:1006B0001B687F4A0021D1540022854B2360002A09
:1006C00000D1EEE07C4B9B692022110019401A42B8
:1006D00000D0E8E0D0231B061B68012B0CD07A4B1E
:1006E00001221A60794B00229B5E0A2B08D06B46D0
:1006F000DA1D0A2313701DE0704B1F3A1A60F1E7F0
:100700006B46DA1D0D23137008000028EFD16A4BE9
:100710009B699B06FBD41578674B1D600130013245
:10072000F3E7654B9B699B06FBD41078624B18601E
:10073000013101320029F4D000232360022002B0ED
:1007400070BD0022634B2360002A00D1ADE05A4BFC
:100750009B692022110019401A4200D0C0E0D0232A
:100760001B061B68012B17D0574B01221A60574BF1
:1007700000229B5E202B13D06B46DA1D20231370C2
:1007800000291ED14C4B9B699B06FBD410784A4B29
:10079000186001310132F3E7484B1F3A1A60E6E76F
:1007A0006B46DA1D0D23137008000028E4D1424B7C
:1007B0009B699B06FBD415783F4B1D6001300132CD
:1007C000F3E70022444B2360002A00D18AE03A4B31
:1007D0009B692022110019401A4200D084E0D023E6
:1007E0001B061B68012B0CD0374B01221A60374BBC
:1007F00000229B5E7F2B08D06B46DA1D7F2313708F
:1008000019E02E4B1F3A1A60F1E76B46DA1D0D23F3
:10081000137008000028EFD1274B9B699B06FBD47F
:100820001578254B1D6001300132F3E71078224B1B
:10083000186001310132002904D11F4B9B699B06CE
:10084000FBD4F3E71B4A1368013B1360002B1CDB4E
:10085000184B1B680022632B00DD6DE71F4B2360E4
:10086000002A16D0144B9B6910210A001A40194225
:1008700011D1D0231B061B68012B00D1B4E6124B0B
:10088000012119606B46D91DB7E6130000221A60DA
:10089000DEE7012053E7012051E701204FE7012067
:1008A0004DE701204BE7012049E7012047E7C0461B
:1008B000381900202019002000400340281900208A
:1008C000F98F022012060010241900209023002026
:1008D000BA06001044070010C40700105C0800109E
:1008E00001202CE701202AE7012028E710B50300AA
:1008F0000A4A1068092801DD002010BD084C42009A
:1009000011188900611848608B601218920000234A
:100910001351431C014A1360EFE7C046081A002038
:10092000101A002010B503000A4A1068092801DDDA
:10093000002010BD084C4200111889006118486061
:100940008B601218920000231351431C014A13605C
:10095000EFE7C0460C1A0020881A002010B5D023FB
:100960001B061B68012B0DD00B48FFF7BFFFD023E0
:100970001B061B68012B09D0084800230360FFF702
:100980003BFD10BD0448FFF7CDFFF0E7044800230E
:100990000360FFF7B7FCF4E7C11C00102C1900201E
:1009A0003019002070B582B001230268002A2AD0D5
:1009B0002A4A0260002B4CD0294B9B69202211004F
:1009C00019401A4248D1D0231B061B68012B1DD0A9
:1009D000244B01221A60244B1B68244AD65C244B0A
:1009E00000229B5EB34215D06B46DA1D16700029BB
:1009F00021D11B4B9B699B06FBD41478184B1C60C0
:100A000001310132F3E7184B1A6018E0194B1F3A15
:100A10001A60E0E76B46DA1D0D2313700C00002C02
:100A2000E2D10F4B9B699B06FBD415780C4B1D60E4
:100A300001340132F3E70C4A1368013313600A4BA7
:100A40001B680A4AD25C0023002AB1D1036002204D
:100A500000E0012002B070BD0120FBE7B0090010EA
:100A600000400340241900200C1900209C1900208C
:100A700090230020281900208023DB05002101E0BD
:100A800040005B08402B05D9CA189042F8D3801A61
:100A90009918F5E7080A704710B503680C681B1B26
:100AA000136043684C681B1B5360836889685B1A3A
:100AB000936010BDF8B506000C00150000680B002F
:100AC0005A1E9341DFB20200511E8A4113420ED0DA
:100AD00080235B02984221D09C4209D0C117E317C2
:100AE000220007F081FD0904000C084300E000200B
:100AF0002860706803005A1E93413B4210D0802347
:100B00005B02984223D09C420BD0C117E31722000E
:100B100007F06AFD0904000C084302E02000E7E743
:100B200000206860B06803005A1E93413B4210D019
:100B300080235B0298420DD09C420DD0C117E31771
:100B4000220007F051FD0C04000C044302E02000D9
:100B5000E7E70024AC60F8BD0400FBE7F0B5C6464B
:100B600000B507000668002E0DD080235B029E4270
:100B70001CD0F11732000B00300007F035FD0C04DB
:100B8000000C044300E034007D68002D10D0802369
:100B90005B029D4221D0E9172A000B00280007F0D4
:100BA00023FD030008041B0C184302E03400EBE7AC
:100BB0002800A0468044BC68002C10D080235B0233
:100BC0009C4235D0E11722000B00200007F00CFDFD
:100BD000030008041B0C184302E02800E9E720008A
:100BE0004044FFF749FF8046002E07D031143004FF
:100BF0004346DB17424606F07BF906003E60002DB7
:100C000007D0291428044346DB17424606F070F942
:100C100005007D60002C07D0211420044346DB171B
:100C2000424606F065F90400BC6080BCB846F0BDE1
:100C30002000D5E7F8B506000D0000680C68030039
:100C40005A1E93412200511E8A411A420ED080231F
:100C50005B0298420BD09C4221D0C117E3172200BF
:100C600007F0C2FC0C04000C044300E00024706890
:100C70006A680300591E8B4111004F1EB941194289
:100C80000FD080235B0298420CD09A4223D0C11728
:100C9000D31707F0A9FC0A04000C024302E0040089
:100CA000E5E70022A418B068AA680300591E8B412A
:100CB00011004D1EA94119420FD080235B029842BA
:100CC0000CD09A420CD0C117D31707F08DFC0A0440
:100CD000000C024302E00200E4E70022A018F8BD85
:100CE0000200FBE7F0B5DE4657464E464546E0B506
:100CF00085B006000D00914644688F683B005A1E7F
:100D00009341DAB292462200511E8A4113420FD01B
:100D100080235B029C4228D09F420AD0E117FB1738
:100D20003A00200007F060FC0C04000C044300E0D3
:100D30000024B36898465A1E9341DAB293466A6813
:100D40001100481E81410B4211D080235B0298455F
:100D50000ED09A4226D04346D917D317404607F003
:100D600043FC0A04000C024302E03C00E1E70022DD
:100D7000A41A01942C6823005A1E93415A46134228
:100D800012D080235B0298450FD09C4223D043466B
:100D9000D917E3172200404607F026FC0C04000C8C
:100DA000044302E04246E3E70024306803005A1E91
:100DB00093415246134210D080235B0298420DD0DB
:100DC0009F4226D0C117FB173A0007F00DFC0F0415
:100DD000000C074302E04446E7E70027E41B0294C7
:100DE00030686C6803005A1E93412200511E8A41EC
:100DF0001A4210D080235B0298420DD09C4223D02F
:100E0000C117E317220007F0EFFB0C04000C0443AA
:100E100002E00700E2E7002470682A680300591E18
:100E20008B4111004D1EA94119420FD080235B0256
:100E300098420CD09A4218D0C117D31707F0D4FBB0
:100E40000A04000C024302E00400E5E70022A41AB1
:100E500003940C2201A9484607F078FD05B0F0BCC8
:100E6000BB46B246A946A046F0BD0200EFE7F0B58A
:100E7000C64600B505000C00904600680F680300E8
:100E80005A1E93413A00511E8A411A420ED08023C5
:100E90005B0298420BD09F4221D0C117FB173A004A
:100EA00007F0A2FB0F04000C074300E0002768686E
:100EB00022690300591E8B4111004E1EB141194297
:100EC0000FD080235B0298420CD09A4223D0C117E6
:100ED000D31707F089FB0A04000C024302E0070065
:100EE000E5E70022BF18A868226A0300591E8B415B
:100EF00011004E1EB14119420FD080235B0298426F
:100F00000CD09A4223D0C117D31707F06DFB0A0407
:100F1000000C024302E00200E4E70022BF18E86888
:100F2000226B0300591E8B4111004E1EB141194224
:100F30000FD080235B0298420CD09A4226D0C11772
:100F4000D31707F051FB0A04000C024302E0020031
:100F5000E4E70022BA1843461A602868676803006D
:100F60005A1E93413A00511E8A411A4210D08023E2
:100F70005B0298420DD09F4223D0C117FB173A0065
:100F800007F032FB0F04000C074302E00200E1E728
:100F90000027686862690300591E8B4111004E1ECC
:100FA000B14119420FD080235B0298420CD09A4283
:100FB00023D0C117D31707F017FB0A04000C024314
:100FC00002E00700E5E70022BF18A868626A030094
:100FD000591E8B4111004E1EB14119420FD0802382
:100FE0005B0298420CD09A4223D0C117D31707F066
:100FF000FBFA0A04000C024302E00200E4E70022CC
:10100000BF18E868626B0300591E8B4111004E1E29
:10101000B14119420FD080235B0298420CD09A4212
:1010200026D0C117D31707F0DFFA0A04000C0243D9
:1010300002E00200E4E70022BA1843465A6028683A
:10104000A76803005A1E93413A00511E8A411A4272
:1010500010D080235B0298420DD09F4223D0C1174D
:10106000FB173A0007F0C0FA0F04000C074302E038
:101070000200E1E700276868A2690300591E8B415E
:1010800011004E1EB14119420FD080235B029842DD
:101090000CD09A4223D0C117D31707F0A5FA0A043F
:1010A000000C024302E00700E5E70022BF18A86831
:1010B000A26A0300591E8B4111004E1EB141194214
:1010C0000FD080235B0298420CD09A4223D0C117E4
:1010D000D31707F089FA0A04000C024302E0020069
:1010E000E4E70022BF18E868A26B0300591E8B4199
:1010F00011004E1EB14119420FD080235B0298426D
:101100000CD09A4226D0C117D31707F06DFA0A0403
:10111000000C024302E00200E4E70022BA18434652
:101120009A602868E76803005A1E93413A00511EEE
:101130008A411A4210D080235B0298420DD09F4210
:1011400023D0C117FB173A0007F04EFA0F04000C2A
:10115000074302E00200E1E700276868E269030054
:10116000591E8B4111004E1EB14119420FD08023F0
:101170005B0298420CD09A4223D0C117D31707F0D4
:1011800033FA0A04000C024302E00700E5E70022FC
:10119000BF18A868E26A0300591E8B4111004E1E59
:1011A000B14119420FD080235B0298420CD09A4281
:1011B00023D0C117D31707F017FA0A04000C024313
:1011C00002E00200E4E70022BF18E868E26B0300D7
:1011D000591E8B4111004E1EB14119420FD0802380
:1011E0005B0298420CD09A4226D0C117D31707F061
:1011F000FBF90A04000C024302E00200E4E70022CB
:10120000BA184346DA602869276803005A1E9341DA
:101210003A00511E8A411A4210D080235B02984244
:101220000DD09F4223D0C117FB173A0007F0DCF91D
:101230000F04000C074302E00200E1E700276869A1
:1012400022690300591E8B4111004E1EB141194203
:101250000FD080235B0298420CD09A4223D0C11752
:10126000D31707F0C1F90A04000C024302E007009B
:10127000E5E70022BF18A869226A0300591E8B41C6
:1012800011004E1EB14119420FD080235B029842DB
:101290000CD09A4223D0C117D31707F0A5F90A043E
:1012A000000C024302E00200E4E70022BF18E869F4
:1012B000226B0300591E8B4111004E1EB141194291
:1012C0000FD080235B0298420CD09A4226D0C117DF
:1012D000D31707F089F90A04000C024302E0020068
:1012E000E4E70022BA1843461A61286967680300D8
:1012F0005A1E93413A00511E8A411A4210D080234F
:101300005B0298420DD09F4223D0C117FB173A00D1
:1013100007F06AF90F04000C074302E00200E1E75E
:101320000027686962690300591E8B4111004E1E37
:10133000B14119420FD080235B0298420CD09A42EF
:1013400023D0C117D31707F04FF90A04000C02434A
:1013500002E00700E5E70022BF18A869626A0300FF
:10136000591E8B4111004E1EB14119420FD08023EE
:101370005B0298420CD09A4223D0C117D31707F0D2
:1013800033F90A04000C024302E00200E4E7002201
:10139000BF18E869626B0300591E8B4111004E1E95
:1013A000B14119420FD080235B0298420CD09A427F
:1013B00026D0C117D31707F017F90A04000C02430F
:1013C00002E00200E4E70022BA1843465A612869A5
:1013D000A76803005A1E93413A00511E8A411A42DF
:1013E00010D080235B0298420DD09F4223D0C117BA
:1013F000FB173A0007F0F8F80F04000C074302E06F
:101400000200E1E700276869A2690300591E8B41C9
:1014100011004E1EB14119420FD080235B02984249
:101420000CD09A4223D0C117D31707F0DDF80A0475
:10143000000C024302E00700E5E70022BF18A8699C
:10144000A26A0300591E8B4111004E1EB141194280
:101450000FD080235B0298420CD09A4223D0C11750
:10146000D31707F0C1F80A04000C024302E002009F
:10147000E4E70022BF18E869A26B0300591E8B4104
:1014800011004E1EB14119420FD080235B029842D9
:101490000CD09A4226D0C117D31707F0A5F80A043A
:1014A000000C024302E00200E4E70022BA184346BF
:1014B0009A612869E76803005A1E93413A00511E59
:1014C0008A411A4210D080235B0298420DD09F427D
:1014D00023D0C117FB173A0007F086F80F04000C61
:1014E000074302E00200E1E700276869E2690300C0
:1014F000591E8B4111004E1EB14119420FD080235D
:101500005B0298420CD09A4223D0C117D31707F040
:101510006BF80A04000C024302E00700E5E7002232
:10152000BF18A869E26A0300591E8B4111004E1EC4
:10153000B14119420FD080235B0298420CD09A42ED
:1015400023D0C117D31707F04FF80A04000C024349
:1015500002E00200E4E70022BF18E869E26B030042
:10156000591E8B4111004E1EB14119420FD08023EC
:101570005B0298420CD09A4226D0C117D31707F0CD
:1015800033F80A04000C024302E00200E4E7002200
:10159000BA184346DA61286A276803005A1E934145
:1015A0003A00511E8A411A4210D080235B029842B1
:1015B0000DD09F4223D0C117FB173A0007F014F853
:1015C0000F04000C074302E00200E1E70027686A0D
:1015D00022690300591E8B4111004E1EB141194270
:1015E0000FD080235B0298420CD09A4223D0C117BF
:1015F000D31706F0F9FF0A04000C024302E00700CB
:10160000E5E70022BF18A86A226A0300591E8B4131
:1016100011004E1EB14119420FD080235B02984247
:101620000CD09A4223D0C117D31706F0DDFF0A046D
:10163000000C024302E00200E4E70022BF18E86A5F
:10164000226B0300591E8B4111004E1EB1411942FD
:101650000FD080235B0298420CD09A4226D0C1174B
:10166000D31706F0C1FF0A04000C024302E0020097
:10167000E4E70022BA1843461A62286A6768030042
:101680005A1E93413A00511E8A411A4210D08023BB
:101690005B0298420DD09F4223D0C117FB173A003E
:1016A00006F0A2FF0F04000C074302E00200E1E78E
:1016B0000027686A62690300591E8B4111004E1EA3
:1016C000B14119420FD080235B0298420CD09A425C
:1016D00023D0C117D31706F087FF0A04000C02437A
:1016E00002E00700E5E70022BF18A86A626A03006B
:1016F000591E8B4111004E1EB14119420FD080235B
:101700005B0298420CD09A4223D0C117D31706F03F
:101710006BFF0A04000C024302E00200E4E700222F
:10172000BF18E86A626B0300591E8B4111004E1E00
:10173000B14119420FD080235B0298420CD09A42EB
:1017400026D0C117D31706F04FFF0A04000C02433E
:1017500002E00200E4E70022BA1843465A62286A0F
:10176000A76803005A1E93413A00511E8A411A424B
:1017700010D080235B0298420DD09F4223D0C11726
:10178000FB173A0006F030FF0F04000C074302E09D
:101790000200E1E70027686AA2690300591E8B4135
:1017A00011004E1EB14119420FD080235B029842B6
:1017B0000CD09A4223D0C117D31706F015FF0A04A4
:1017C000000C024302E00700E5E70022BF18A86A08
:1017D000A26A0300591E8B4111004E1EB1411942ED
:1017E0000FD080235B0298420CD09A4223D0C117BD
:1017F000D31706F0F9FE0A04000C024302E00200CF
:10180000E4E70022BF18E86AA26B0300591E8B416F
:1018100011004E1EB14119420FD080235B02984245
:101820000CD09A4226D0C117D31706F0DDFE0A0469
:10183000000C024302E00200E4E70022BA1843462B
:101840009A62286AE76803005A1E93413A00511EC3
:101850008A411A4210D080235B0298420DD09F42E9
:1018600023D0C117FB173A0006F0BEFE0F04000C90
:10187000074302E00200E1E70027686AE26903002B
:10188000591E8B4111004E1EB14119420FD08023C9
:101890005B0298420CD09A4223D0C117D31706F0AE
:1018A000A3FE0A04000C024302E00700E5E7002261
:1018B000BF18A86AE26A0300591E8B4111004E1E30
:1018C000B14119420FD080235B0298420CD09A425A
:1018D00023D0C117D31706F087FE0A04000C024379
:1018E00002E00200E4E70022BF18E86AE26B0300AE
:1018F000591E8B4111004E1EB14119420FD0802359
:101900005B0298420CD09A4226D0C117D31706F03A
:101910006BFE0A04000C024302E00200E4E700222E
:10192000BA184346DA62286B276803005A1E9341AF
:101930003A00511E8A411A4210D080235B0298421D
:101940000DD09F4223D0C117FB173A0006F04CFE82
:101950000F04000C074302E00200E1E70027686B78
:1019600022690300591E8B4111004E1EB1411942DC
:101970000FD080235B0298420CD09A4223D0C1172B
:10198000D31706F031FE0A04000C024302E0070000
:10199000E5E70022BF18A86B226A0300591E8B419D
:1019A00011004E1EB14119420FD080235B029842B4
:1019B0000CD09A4223D0C117D31706F015FE0A04A3
:1019C000000C024302E00200E4E70022BF18E86BCB
:1019D000226B0300591E8B4111004E1EB14119426A
:1019E0000FD080235B0298420CD09A4226D0C117B8
:1019F000D31706F0F9FD0A04000C024302E00200CE
:101A0000E4E70022BA1843461A63286B67680300AC
:101A10005A1E93413A00511E8A411A4210D0802327
:101A20005B0298420DD09F4223D0C117FB173A00AA
:101A300006F0DAFD0F04000C074302E00200E1E7C4
:101A40000027686B62690300591E8B4111004E1E0E
:101A5000B14119420FD080235B0298420CD09A42C8
:101A600023D0C117D31706F0BFFD0A04000C0243B0
:101A700002E00700E5E70022BF18A86B626A0300D6
:101A8000591E8B4111004E1EB14119420FD08023C7
:101A90005B0298420CD09A4223D0C117D31706F0AC
:101AA000A3FD0A04000C024302E00200E4E7002266
:101AB000BF18E86B626B0300591E8B4111004E1E6C
:101AC000B14119420FD080235B0298420CD09A4258
:101AD00026D0C117D31706F087FD0A04000C024375
:101AE00002E00200E4E70022BA1843465A63286B7A
:101AF000A76803005A1E93413A00511E8A411A42B8
:101B000010D080235B0298420DD09F4223D0C11792
:101B1000FB173A0006F068FD0F04000C074302E0D3
:101B20000200E1E70027686BA2690300591E8B41A0
:101B300011004E1EB14119420FD080235B02984222
:101B40000CD09A4223D0C117D31706F04DFD0A04DA
:101B5000000C024302E00700E5E70022BF18A86B73
:101B6000A26A0300591E8B4111004E1EB141194259
:101B70000FD080235B0298420CD09A4223D0C11729
:101B8000D31706F031FD0A04000C024302E0020004
:101B9000E4E70022BF18E86BA26B0300591E8B41DB
:101BA00011004E1EB14119420FD080235B029842B2
:101BB0000CD09A4226D0C117D31706F015FD0A049F
:101BC000000C024302E00200E4E70022BA18434698
:101BD0009A63286BE76803005A1E93413A00511E2E
:101BE0008A411A4210D080235B0298420DD09F4256
:101BF00023D0C117FB173A0006F0F6FC0F04000CC7
:101C0000074302E00200E1E70027686BE269030096
:101C1000591E8B4111004E1EB14119420FD0802335
:101C20005B0298420CD09A4223D0C117D31706F01A
:101C3000DBFC0A04000C024302E00700E5E7002297
:101C4000BF18A86BE26A0300591E8B4111004E1E9B
:101C5000B14119420FD080235B0298420CD09A42C6
:101C600023D0C117D31706F0BFFC0A04000C0243AF
:101C700002E00200E4E70022BF18E86BE26B030019
:101C8000591E8B4111004C1EA14119420FD08023D7
:101C90005B0298420CD09A4210D0C117D31706F0BD
:101CA000A3FC0A04000C024302E00200E4E7002265
:101CB000BA184346DA6380BCB846F0BD0200F7E7C5
:101CC000F0B5D646474680B58DB080460368002BF8
:101CD00000D191E19F4606F001FD06F021FD0400D0
:101CE0000D00391C301C06F0BCFC061C0022F14B18
:101CF0002000290005F04DFB04000D00301C06F00B
:101D00000FFD0090019122002B00EB4806F076FFBA
:101D1000EA4B1E68301C06F003FD0022E84B05F07C
:101D200038FB05F0C7FB002800D1EEE104140504E0
:101D3000E44B186806F0F4FC0022E14B05F029FBA7
:101D400005F0B8FB0200C3172800210005F0D0F809
:101D500006F0C4FC06F0E4FC04000D00D94B196841
:101D6000301C06F068FC061C0022D24B2000290023
:101D700005F00FFB04000D00301C06F0D1FC0090B4
:101D8000019122002B00D04806F038FFCB4B186899
:101D900006F0C6FC04000D000022C94B05F0F9FA5C
:101DA00005F088FBFEF768FE06F098FC06F0B8FC2C
:101DB00006000F002000290005F0FCFB04000D00C8
:101DC0000022BC4B3000390005F0E3FA02000B00A2
:101DD00000940195BD4806F011FFBD4E3200BD498B
:101DE000BD48FFF744F8306806F078FC06F098FC30
:101DF00004000D00706806F071FC06F091FC06907E
:101E00000791B06806F06AFC06F08AFC0890099118
:101E1000F06806F063FC06F083FC0A900B91002248
:101E2000A44B2000290005F0B4FA04000D00AB4BD0
:101E30009A4600229F4B0A980B9905F0AAFA049043
:101E4000059100229B4B0898099905F0A2FA02908F
:101E500003910022974B0698079905F09AFA009093
:101E6000019122002B00504606F0C8FE306906F0B2
:101E700035FC06F055FC04000D00706906F02EFCE0
:101E800006F04EFC06900791B06906F027FC06F0BC
:101E900047FC08900991F06906F020FC06F040FC30
:101EA0000A900B910022834B2000290005F071FA63
:101EB00004000D0000227F4B0A980B9905F069FA87
:101EC0000490059100227B4B0898099905F061FA6E
:101ED000029003910022774B0698079905F059FA72
:101EE0000090019122002B00504606F087FE306AD8
:101EF00006F0F4FB06F014FC04000D00706A06F016
:101F0000EDFB06F00DFC06900791B06A06F0E6FBCB
:101F100006F006FC08900991F06A06F0DFFB06F077
:101F2000FFFB0A900B910022624B2000290005F074
:101F300030FA04000D0000225E4B0A980B9905F060
:101F400028FA0490059100225A4B0898099905F047
:101F500020FA029003910022564B0698079905F04B
:101F600018FA0090019122002B00504606F046FE20
:101F7000306B06F0B3FB06F0D3FB04000D00706B72
:101F800006F0ACFB06F0CCFB06900791B06B06F0B8
:101F9000A5FB06F0C5FB08900991F06B06F09EFBCF
:101FA00006F0BEFB06000F000022424B2000290075
:101FB00005F0EFF904000D0000223E4B300039001F
:101FC00005F0E7F90490059100223A4B0898099929
:101FD00005F0DFF9029003910022364B069807992D
:101FE00005F0D7F90090019122002B00504606F031
:101FF00005FE3B4B01221A603A4A3B4B13CB13C2FE
:1020000011001A680A601B790B71384B00221A60A4
:10201000374B424613603548FEF7C4FC012877DD94
:10202000344B00221A60344B424613603148FEF7AD
:10203000B5FA01286CD9234F204C3B0022002F49D0
:102040002F4807F055FE2668301C06F069FB002279
:102050001B4B05F09EF905F02DFA040005006B1EE0
:102060009D41EDB23F68381C06F05AFB0022144B2C
:1020700005F08FF905F01EFA03005A1E93412B421A
:1020800040D080235B029C4200D124E680235B0287
:1020900098420BD0E117C3170200200006F0A4FA03
:1020A0000904000C084306F019FB16E6200006F0B0
:1020B00015FB12E60000F03E7CE5001054120020F3
:1020C0000000F0406812002098E50010B4E5001010
:1020D00010030020CC0200208C020020D8E5001064
:1020E0000C0300209C19002060E50010041A002059
:1020F00010200010001A00202620001074E50010A7
:102100003819002000240025EBE50024002525E6F1
:1021100000200DB0C0BCBA46B046F0BDF0B5DE46FA
:1021200057464E464546E0B585B007008A4616003C
:1021300098460E9D0F9C10AB1B789B46884504DB90
:10214000434688469A4606001700A04505DC230052
:10215000444698462B0035001E00C24505DC434628
:10216000D0469A4633003E001F00444536D0B54263
:1021700037D0701B0114000443461A1BD31704F018
:10218000B7FE019054452FD0BD4230D0781B0114CA
:10219000000453461A1BD31704F0AAFE8146D0450B
:1021A00028D0BE4229D0BF1B3914380453464246BA
:1021B0009A1AD31704F09CFE0390444520D00123C3
:1021C000019A4A4500DB0023DBB20293029B002BFD
:1021D00049D12F004346B0461E002AE00023019358
:1021E000D0E700230193CDE700239946D7E70023EA
:1021F0009946D4E700230393DFE700230393DCE74A
:102200000123B54200DC0023DBB20293DEE7281491
:1022100021147A1B1214D317D2185A405B4601F0CE
:102220005DFC80235B029C4664444D44019B9C46BC
:102230006744A642EBDC33004646534527D0029B59
:10224000002B05D0039B9946019B039335003E006C
:1022500028142114721B12145B4601F03FFC039BEF
:102260009846574611E04B46019A91460193B0E7D4
:1022700080235B029C4664444D4446442814211448
:10228000721B12145B4601F029FCA742F0DC05B07A
:10229000F0BCBB46B246A946A046F0BDF0B5DE464E
:1022A00057464E464546E0B587B007000C00019200
:1022B00008683E6803005A1E93413200511E8A414D
:1022C0001A420ED080235B0298420BD09E4225D04A
:1022D000C117F317320006F087F90E04000C06430D
:1022E00000E0002620697B6899465A1E9341DAB2C5
:1022F00093460200511E8A41134211D080235B0293
:1023000098422BD099450CD0C1174B46DB174A4653
:1023100006F06AF90904000C084302E00600E1E750
:1023200000203618206ABB6898465A1E9341DAB2DC
:1023300092460200511E8A41134211D080235B0253
:1023400098422CD098450CD0C1174346DB17424623
:1023500006F04AF90904000C084302E04846E0E7A9
:1023600000203618236B9C466644039660683D68DF
:1023700003005A1E93412A00511E8A411A4210D06E
:1023800080235B0298420DD09D4223D0C117EB17EA
:102390002A0006F029F90D04000C054302E040462E
:1023A000DFE70025606903005A1E93415A46134235
:1023B00012D080235B02984210D0994526D0C117D5
:1023C0004B46DB174A4606F00FF90904000C01439F
:1023D000894603E00500E5E7002399464D44606A1D
:1023E00003005A1E93415246134211D080235B02D0
:1023F00098422DD098450CD0C1174346DB17424672
:1024000006F0F2F80904000C084302E08146E5E713
:1024100000202D18636B9946A9444B460493A0688D
:102420003D6803005A1E93412A00511E8A411A42F8
:1024300010D080235B0298420DD09D4225D0C11759
:10244000EB172A0006F0D0F80D04000C054302E05B
:102450004046DEE70025A0697A6801004B1E9941DD
:102460008C461300591E8B4161460B420FD08023CE
:102470005B0298420CD09A4223D0C117D31706F0C2
:10248000B3F80A04000C024302E00500E3E700226F
:10249000AD18A06A03005A1E93415246134212D04F
:1024A00080235B02984210D098452FD0C117434635
:1024B000DB17424606F098F80904000C01438846F1
:1024C00003E00200E4E7002398464544A36B9C46E2
:1024D00065440595E0683B68984603005A1E9341A1
:1024E0004246511E8A411A4212D080235B02984212
:1024F00010D0984528D0C1174346DB17424606F056
:1025000073F80904000C0143884603E08046DCE7C9
:1025100000239846E0697A680300591E8B419C4667
:1025200011004B1E9941634619420FD080235B0274
:1025300098420CD09A4223D0C117D31706F054F812
:102540000A04000C024302E08046E3E700229044C4
:10255000E06ABA680300591E8B4111004F1EB94151
:1025600019420FD080235B0298420CD09A4240D08F
:10257000C117D31706F038F80A04000C024302E032
:102580000200E4E700224244E46B1419002C32DD1F
:1025900080235B029C421FD0002E06D031143004F1
:1025A000E317220004F0A4FC060003964B46002B20
:1025B00006D019141804E317220004F099FC814690
:1025C0004B460493002D06D029142804E31722005B
:1025D00004F08EFC050005950C2203A9019806F075
:1025E000B5F9002007B0F0BCBB46B246A946A046EC
:1025F000F0BD0200C7E701204042F3E710B50E4CE2
:10260000800003590B600D4A83584B6000238B6098
:10261000CB60825852420A6102594A618B61CB6198
:102620000B624B62802252028A62CB620B634B6365
:102630008B63CA6310BDC0469C1200205C1D002045
:1026400030B50E4C800003590B6000234B600C4DDD
:10265000425952428A60CB600B61802252024A6129
:102660008B61CB6145590D624B6200598862CB6228
:102670000B634B638B63CA6330BDC0469C12002062
:102680005C1D002030B580256D021D6000245C605B
:102690009C60DC601C615D619C61DC611C625C6251
:1026A0009D62DC62186359639A63DD6330BD00008C
:1026B000024B00221A605A607047C046987B022085
:1026C000F0B5DE4657464E464546E0B583B001912B
:1026D00098460CAB00215B5E99462D4B1D685B68EC
:1026E0009C462E00002711E07B00DB199B00D318CD
:1026F0007400A419A400A246254C54441968A16092
:102700005968E1609B682361013701362B18B34299
:10271000EADC644600262AE070008019800040440C
:1027200002689246AA4462001219920018498B4628
:102730005A4418498B469344594657460F6041689E
:102740008A46AA4414498B469344594657460F601B
:1027500080684019972109018A46524410600F4A47
:10276000A218520049460A48115201360134624605
:1027700001998A465244A242CEDC05490B604A6068
:1027800003B0F0BCBB46B246A946A046F0BDC04669
:10279000987B0220680900006C09000064090000B1
:1027A000F0B5AFB004000F0015001E0083685A4258
:1027B00043685942036858421EABFFF763FF1BAAE8
:1027C00021003800FEF768F91BA8FEF7C7F92800BA
:1027D000FEF7C4F91BA92800FEF72CFA010012AA83
:1027E0001BA8FEF767F918AA12A92800FEF754F9EA
:1027F00018A8FEF7B3F915AA18A91BA8FEF772FAD4
:1028000015A8FEF7ABF9159B0293189B03931B9B2E
:10281000049300210591169B01930693199B019344
:1028200007931C9B019308930991179B01930A93AB
:102830001A9B01930B931D9B01930C930D910E9189
:102840000F91109180235B021193320002A91EA800
:10285000FEF70DFB2FB0F0BDF8B5060015001C000B
:10286000002806D007140004CB170A00390004F032
:102870003FFB206000236360A360E360236160612D
:10288000A361E36123626362002D06D0291428044A
:10289000AA1BD31704F02CFB00E02800A0628023C1
:1028A0005B02E3620023236363632B005A1E9341A0
:1028B0003200511E8A411A423AD080235B029D4267
:1028C0002CD09E4226D0E917F3173200280005F0DD
:1028D0008BFE0904030C0B435A425341DBB2002B1D
:1028E0002BD180235B029D421CD080235B029E4241
:1028F0001BD0E917F3173200280005F075FE090414
:10290000000C084301140004AA1BD31704F0F0FACA
:1029100040420EE06B426B41DBB2E0E77342734131
:10292000DBB2DCE731143004EEE729142804EBE7CE
:102930000020A0630023E363F8BD0020F9E7000056
:10294000F0B59BB0314C04232360636020820EA855
:102950002F4B0200190061C961C261C961C261C91E
:1029600061C261C961C202A930330A0023CB23C20C
:1029700023CB23C223CB23C223CB23C2302005F099
:1029800089FFA060002215E0204C53009D18AD0087
:102990000EA92800A6686F587751A568AC46604418
:1029A0009B189B00C9184D684560A068C3188968CA
:1029B00099600132154B1B689342E5DC134C636848
:1029C0005800C018800005F065FFE060002217E0A5
:1029D0000E4853009C18A400210002AD65590195D2
:1029E000C568019E2E51C46864180B0002ADAC4648
:1029F00061444D686560C068C31889689960013298
:102A0000024B1B689342E3DC1BB0F0BD7C2300202B
:102A1000ACE60010F0B5BFB02C4C082323600433A3
:102A2000636020822A496022603126A805F08EFF6B
:102A30009022284902A805F089FF602005F02AFFAE
:102A4000A060002215E0214C53009D18AD0026A97E
:102A50002800A6686F587751A568AC4660449B185B
:102A60009B00C9184D684560A068C31889689960C3
:102A70000132164B1B689342E5DC144C6368580026
:102A8000C018800005F006FFE060002217E00F4844
:102A900053009C18A400210002AD65590195C5683A
:102AA000019E2E51C46864180B0002ADAC4661440F
:102AB0004D686560C068C318896899600132034B2E
:102AC0005B689342E3DC3FB0F0BDC0463C18002099
:102AD000ACE600106CE70010F0B5D6464F4646460F
:102AE000C0B506000D00140007680A6894466744E4
:102AF0002760426849688C466244626023825000C5
:102B00008018800005F0C6FEE0607800C0198000E3
:102B100005F0C0FEA0600021002399461EE04A0097
:102B2000521892004B465B004B449B00B768BF585D
:102B3000A068C750B06884469444A068C71860462F
:102B400040687860B06884466244A0688446634404
:102B500092689A6001239C46E144013133688B42BC
:102B6000DDDCCA46002122E04A005218920053469A
:102B70005B0053449B00A86880588446A068674661
:102B8000C750A86880469044A06884469C4460462C
:102B900047467F684760A86884466244A0688446C8
:102BA000634492689A6001239C46E24401312B6899
:102BB0008B42D9DC0027002322E07900C9198A0062
:102BC00092465A00D2189200F06851464058844606
:102BD000E06861468150F1688846D044E1688C46DF
:102BE00094446146404640684860F1688C465146CE
:102BF0006144E0688446624489689160013301372A
:102C00007268BA42D9DC00261EE071008919890079
:102C1000EA6857585A00D21892004F44E06887502B
:102C2000E868471878688446E0688718CC446046AE
:102C30007860E868844661448968E0688446624454
:102C400049449160013301366A68B242DDDCE0BC80
:102C5000BA46B146A846F0BDF0B5DE4657464E46E8
:102C60004546E0B585B007008846140002921D0075
:102C700003939A4246DA9A1AD30F9B185B10A44624
:102C800063449B005B589B00185805F027FD631EAA
:102C90009B466C1C3B00071C994601239C46E34461
:102CA0005B469B0043449A461B6801939B004A463F
:102CB000985805F013FD391C05F004FD0028ECD1EF
:102CC0000094013CA50045442E68B3004A4698583C
:102CD00005F004FD391C05F0FBFC0028F0D1A345EC
:102CE00004DA53461E60019B2B60D6E72300029A4C
:102CF00041464846FFF7B0FF039B009A41464846CD
:102D0000FFF7AAFF05B0F0BCBB46B246A946A046F5
:102D1000F0BD0000F0B5DE4657464E464546E0B5EC
:102D2000A3B004AF824601220368002B00D09F4667
:102D3000052300932D33B0220021402000F087FFAF
:102D4000B420062300932C33B0220021FF3000F082
:102D50007EFF0F2001F032F80021412001F01AF827
:102D6000012001F021F8E74801F096F80A214120FE
:102D700001F010F8E44801F08FF81421412001F02F
:102D800009F8E24801F088F81E21412001F002F81C
:102D9000DF4801F081F82821412000F0FBFFDD48E9
:102DA00001F07AF8BE24FF340A21200000F0F2FF7F
:102DB000002001F003F8012000F0F6FFD64801F0F2
:102DC0006BF81421200000F0E5FFD44801F064F80E
:102DD0001E21200000F0DEFFD14801F05DF8AF3C7D
:102DE0001421200000F0D6FF00210F2000F0F0FF9A
:102DF000CC4801F09BF82521200000F0CBFF0820F3
:102E0000FFF79EFD0220FFF705FEC74B0022C749D2
:102E1000C748FFF737FC00240AE0C64B98686200F9
:102E20001219920080180200BF49FFF737FA0134E7
:102E3000C04B1B68A342F0DC0623BF4ABD49BF4814
:102E4000FFF74AFE0A20FFF77BFDBD4DBD4B2A0070
:102E5000BD49BE48FFF716FCB448BD4B0200010057
:102E6000FFF710FC80246402BA4B2200B04928000E
:102E7000FFF708FC5423F818B74B5033020062CB1D
:102E800062C200233B667B66BB66FB663B677C6772
:102E9000B24C23001C2250215218D219403950251F
:102EA0004919C919FFF77CFCAD4DA0228021C02033
:102EB0002B00520389028002FFF7CEFCA94A2900A9
:102EC0002000FDF7D4FF0022A74B51460B60002ADB
:102ED00000D102E3A54B1B68002B00D1FDE2D023FB
:102EE0001B061B68012B37D0A14B01221A6000245E
:102EF0009E4B1C60C9225200032300931300312112
:102F0000772000F07FFE9B4B1C609A4B19680022D3
:102F1000FA239B009942D7DA02F060F8964B1860CA
:102F20005960964B00221A60FFF7C2FB914CB42106
:102F30004900206803F08EFF08009149FFF75EFB0F
:102F400020684000B421490003F084FF08008D4947
:102F5000FFF776FB00251AE08B4B01221A60C6E7CB
:102F6000764B9A68680040198000884C2418101825
:102F700022007749FFF792F9220081492000FFF7EC
:102F80008DF922007F492000FFF788F901356B4B4E
:102F90001B68AB42E4DC002411E0664B9A686000D9
:102FA000001980007A4D2D1810182A007549FFF776
:102FB00075F92A0063492800FFF770F901345D4B69
:102FC0001B68A342E9DC5C4B1A686B467B615300CB
:102FD0009B189B000733DB08DB006A46D31A9D462B
:102FE00013266E44B608B600002410E0524B9A68CF
:102FF000600000198000351810182A006149FFF799
:103000004DF92A0053492800FFF748F901344A4B8B
:103010001B68A342EADC474AD36851681068102451
:10302000125F00925A4AFFF74BFB444AD36851683B
:1030300010681024125F0092544AFFF741FB3E4A89
:10304000D368516810681024125F00923200FFF7B5
:1030500037FB504A13689B000733DB08DB006946E7
:10306000CB1A9D4613236B449B089B0098465368DC
:103070009B000733DB08DB006A46D31A9D46132307
:103080006B449B089B003B610024260091E0A0223A
:10309000520473009B199B003E49CB189A60DB6871
:1030A000002B79D080225202934200D1C1E0BB6153
:1030B000DB17FB61B869F969820F9B007B631343DF
:1030C0007B6383003B633A6B7B6B12184B41910F20
:1030D0009800F8620843F8629100B962B86AF96A28
:1030E00012184B41500BD9040143D0040904020CBF
:1030F0000A43F0231B049C4662444FE08222920460
:10310000C7E7C046E8E50010FCE5001004E6001043
:1031100014E6001020E6001030E600104CE6001027
:103120005CE600106CE60010541100200080FFFFE8
:103130000000FFFF7C230020382300203C180020E3
:103140000000FEFF941100200080FEFF0000FCFF45
:10315000D410002014110020ACE70010D41100207E
:1031600014100020D40F0020C82E00100C030020E3
:103170002419002000230020A00F0020FC180020AC
:10318000941000205410002028190020501800200E
:103190004C230020987B0220F022120473009B191C
:1031A0009B00D249CB18DA601A69B30041465A50E5
:1031B0000136CE4B1B689E423EDA7500A81980008E
:1031C0000830CA4C00190200C949FFF767F8AB196B
:1031D0009B00E3189B68002B00D158E78022520225
:1031E00093428BD03B62DB177B62386A796A820F2D
:1031F0009B007B6413437B6483003B643A6C7B6C71
:1032000012184B41910F9800F8630843F86391003E
:10321000B963B86BF96B12184B41500BD9040143D9
:10322000D0040904020C0A43A0235B049C466244B8
:103230002FE7DC225204B1E7002340463C6902E05C
:1032400099000A510133A94A5268934222DA5A007E
:10325000D2189100A54A52189721090151180968FE
:103260008900A44DAC466244126892001558425839
:10327000AA4200DD2A005900C9188D009B4949194E
:103280009D4DAC4661440968890009588A42D7DDE2
:103290000A00D5E793000733DB08DB006A46D31A40
:1032A0009D4613236B449B089900B964002202E0F9
:1032B00093005A5001328D4B5B689A42F8DB013B18
:1032C0000022B96C3869FFF7C7FCD0231B065B6886
:1032D0009B03FAD4C2238222FF339200322178204A
:1032E00000F046FE814B5B68013BFB6453467B600C
:1032F00002E0FB6C013BFB64FB6C002B00DAE2E0BC
:10330000FB6C9B00BA6C9D58784B98466E00761902
:10331000B6004644784B9A46B24453461B689722FF
:103320001201B2181268754989465100891889003E
:10333000083141445800C0188000083040444A46D3
:10334000FDF7AAFB53461B686A4A944666443268F6
:103350006B4E510089188900083141445800C0184B
:103360008000083040443200FDF796FB654B9846DC
:103370001A0031004846FDF7B5FC63494046FDF7A9
:1033800059FC0028B5DCAB003A699B58002BB0DD36
:10339000564E6B00FB605B199B00F318564A904633
:1033A0009844544A914699444A4612681900972015
:1033B000000184466144B9600B68544829184800EC
:1033C00082465100881880003018C06884468918E9
:1033D000890071188A6840460068400041460968C3
:1033E000411889007118C96844462468A3465844A6
:1033F0008000301880685446345D02945C00A24618
:103400009B46D3445C46A400A346B3445C46E468B0
:1034100001945B469C6800946346FEF77FFE42463B
:1034200013685900C818800030184A4612685300C3
:103430004A4612689A189200B2180E24135F0A24A2
:10344000125F0E24015F0A24005F0024A24600944C
:1034500000F076FBB9680B685900C8188000301876
:103460004A46126853009A189200B2180E24135F4D
:103470000A24125F0E24015F0A24005F5446009460
:1034800000F05EFB424613685900C81880003018EF
:10349000FB689C466544AD00751997231B019C464B
:1034A00065442D686B005A199200B2180E24135F00
:1034B0000A24125F0E24015F0A24005F5446009420
:1034C00000F03EFB15E77B689A460022104B514600
:1034D0000B60002A1ED17B699D460120BD461FB0AE
:1034E000F0BCBB46B246A946A046F0BD987B022080
:1034F000D40F00206C09000068090000142300208C
:10350000202300202C2300208002002064090000DA
:10351000CC34001001F062FD124B1A685B688B42DC
:10352000D9D817D0D0231B061B68012B15D00E4B02
:1035300001221A6001F052FD0C4A00238018594103
:10354000084B186059607B699D46094A136801332E
:103550001360DAE48242E5D9BDE7064B01221A6026
:10356000E8E7C046F00E0020241900203075000066
:103570000023002028190020F8B505F04BFB304847
:1035800005F03CFB00F074F8002626E0300005F062
:10359000A5F805F0C5F82B4A2B4B03F0FAFE0022E4
:1035A0002A4B03F0D8FE04000D0004F02FF800228F
:1035B000274B03F0EEFE03F07DFFB700254BD851FB
:1035C0002000290004F00CF80022214B03F0E1FE5A
:1035D00003F070FF204BD8510136B4235B009E42AC
:1035E000D4DB05F0FDFD1D4805F06EFED0231B0663
:1035F0001B68012B16D01A48FDF778F9D0231B065B
:103600001B68012B12D01748FDF770F9D0231B0659
:103610001B68012B0ED0144800230360FCF7ECFE5E
:103620000020F8BD0E48FDF77DF9E7E70D48FDF7EE
:1036300079F9EBE70D4800230360FCF763FEEFE741
:103640007CE600106E861BF0F92119400080764060
:103650000000F0405C1D00209C1200205D0900105D
:10366000152D0010ED0400102C1900203019002039
:10367000F0B5DE4657464E464546E0B58FB0DB4CCA
:10368000DB49200005F0A0FC0600DA49200005F027
:103690009BFC0290D849200005F096FC0490102273
:1036A00000210AAD280005F04BF980225202934612
:1036B0000A92F822520292460B928022D20291463E
:1036C0000C92C0273F030C971022290006AD28005A
:1036D00005F03CF9711C039632000832079D0595F0
:1036E000C64E35402B00C9010B4312031343079309
:1036F000102206A90AAD280005F028F90D990591B8
:10370000BF4D294080239B000B438021C9040B43FC
:103710000D93A023DB020A930621102000F040FC49
:1037200001229046009201230F320021200005F073
:1037300067FC0AAB039A0021200005F0B3FC1022BD
:1037400000210AA805F0FCF85A460A9252460B924C
:103750004A460C920C9710220AAB190006A805F0F5
:10376000F5F8029B591C1A000D32079803900300CC
:103770003340C9010B431203134307930998039085
:10378000C200D2088021C9050A4309929D4A13400C
:1037900019430791102206A801000AA805F0D6F8DF
:1037A0000D98039002002A4088239B001343802138
:1037B000C9040B430D93944A13408822D20113434A
:1037C0000D93A021C9020A910621112000F0E8FB07
:1037D0004146009101231122200005F011FC0AABA3
:1037E000029A0121200005F05DFC102200210AABA5
:1037F000180005F0A5F85B460A9353460B934B4619
:103800000C930C9710220AA906AB180005F09EF83D
:10381000049FB91C3A000832079B02933340C90148
:103820000B43120313430793102206A90AA805F0BD
:103830008DF80D9B02931A002A4090239B001A4397
:1038400080235B0513430D93704A134012221343E8
:103850008022D20313430D930621122000F0A0FB17
:103860000621132000F09CFB0621142000F098FB99
:103870000621152000F094FB4346009303331222E7
:103880000221200005F0BCFB0AAB3A000221200017
:1038900005F008FC012005F077FC0400012005F08C
:1038A00073FC5B4B0C2C00D988E05A4A1340E202AF
:1038B00013430C22934308252B43574D2B40574D60
:1038C0002B40574D2B4001252B43564D2B400225B5
:1038D000AB4393430432134310329343524A134091
:1038E0008022520213430C286ED84A4A1340C20267
:1038F0001343A201A026F605B44662444B4E16605F
:103900004B4E56609626B60296601361404B0C28CB
:1039100060D8404D2B40C5022B430C26B3430825ED
:103920002B433D4F3B403D4F3B403D4F3B400127EC
:103930003B433C4F3B400227BB43B3432B4308353B
:10394000AB431035AB430C2C4AD832490B40E10253
:103950000B438001A021C9058C46604435490160B4
:103960004260012282600361204B5B68DB03FBD471
:103970001E4B314A1A611D4B5B689B03FBD41B4BEA
:10398000E022FF325A61194B5B685B03FBD4174A94
:103990004023FF33936180239B011343274A1A601E
:1039A0000123A340A021C9058622D2008B500FB06D
:1039B000F0BCBB46B246A946A046F0BD204B214A0A
:1039C000C321214802F0A8F81D4B1E4AC3211E48FE
:1039D00002F0A2F81A4B1B4AC3211B4802F09CF8C4
:1039E000174B184AC321184802F096F800002050DF
:1039F000ACF50010E4F50010C8F500107F00FEFFE4
:103A00001FFCFFE3FFFFFF9FFF83FFFFE0FF0FFCB3
:103A100010801F00FF87FFFF3FF8FFFFFFFFBFFF82
:103A2000FFFFDFFFFFFF7FFFFF7FE0FF9823002006
:103A300018002050500300208F02000007070000EC
:103A400008E8001094E8001028E8001010B50B00FA
:103A5000A0218900884203DA002802DA002000E071
:103A60001048002B06DBF02149008B4203DBE023EA
:103A7000FF3300E000239900C918C9010918C307E2
:103A800008D54910084844560F23234012011A4311
:103A9000425410BD4910044843560F24A3431A430F
:103AA0004254F6E77F02000098230020F8B5CE4686
:103AB000474680B581460E00170098460C0006E088
:103AC000424621004846FFF7C1FF013424B2F519F0
:103AD000AC42F5DBC0BCB946B046F8BDF8B506004F
:103AE0000D0014001A011343DFB2C3070AD4E30721
:103AF00010D462100132002A03DDEB235B009D42EB
:103B000010DBF8BD09B200B23A00FFF79FFF0136A3
:103B1000013CECE7301929B200B23A00FFF796FFFA
:103B2000013CE6E7A8004519AD017610AE1903483F
:103B30003018390004F004FFE3E7C0469823002062
:103B4000F0B5DE4657464E464546E0B583B00F0019
:103B500016001C000CAB1B789B46631ADA179B18E7
:103B600053409846331ADA179B18534099469845A4
:103B700004DC230034001E0007000800A74205DC17
:103B800033000600180023003C001F003D1BABB2B1
:103B900000932DB2831BDA179B1853409A46EB0F04
:103BA0005D196D10864223DB01235B4201930CE01B
:103BB0005A4631002000FFF749FF5346EB1A9AB2EC
:103BC0001DB21B040BD4013424B2BC4213DCC84523
:103BD000EEDD5A4621003000FFF738FFEDE7019B8C
:103BE0009C46664436B2009B9C46624415B2EAE7A6
:103BF00001230193E9E703B0F0BCBB46B246A946F6
:103C0000A046F0BDF0B5C64600B504000D009046D4
:103C10001E0006AB1F783B00FFF760FF71190139EA
:103C20003B0042462000FFF759FF3B0032002900CD
:103C30002000FFF73BFF4444A0B2013800B23B0034
:103C400032002900FFF732FF80BCB846F0BDF0B566
:103C5000D6464F464646C0B581460E0092461F00E6
:103C600008AB1B789846050009E021B228B242460D
:103C7000FFF7ECFE0134BB19A342F6DC01355346D5
:103C80004B44AB4201DD3400F5E7E0BCBA46B14637
:103C9000A846F0BDF0B5DE4657464E464546E0B56F
:103CA00085B081468A46039298460EAB1B789B46A8
:103CB0000FAB1E78A0239B00984261DAA03B99428B
:103CC0005EDA73009B195B004B44002B58DDF30058
:103CD0005344002B54DD002743E0404648445346FC
:103CE000E11809B200B23A00FFF7B0FE11E0BB459F
:103CF0000FD0012E24D04046704348443100614328
:103D0000514432B209B200B25B4600931300FFF790
:103D10009EFF6D080134E4B2072C1DD8EB07E6D5F1
:103D2000012EDAD04046704348443100614351448B
:103D300032B209B200B200971300FFF788FFE8E73C
:103D4000404648445346E11809B200B25A46FFF7CC
:103D50007DFEDEE700250EE03B0047469846013732
:103D6000FFB2052F0CD8F5D0039A93009446634414
:103D7000FB18074AD55C00244346B8461F00CBE732
:103D800005B0F0BCBB46B246A946A046F0BDC04651
:103D9000B0F00010024B1880024B19807047C046EB
:103DA000F28F0220F48F0220002803D080B2024B51
:103DB000188070470120FAE7F68F0220024B187036
:103DC000024B18707047C046FC8F0220FD8F022006
:103DD000024B1870024B19707047C046FD8F0220CD
:103DE000FC8F022070B582B002000A280DD00D2889
:103DF00015D0092815D1224B1B88191DA02292002D
:103E000091420CDA1E4A118009E01E4A1E4B1B88A3
:103E1000DB0011885B181380194B00221A8002B056
:103E200070BD1A4B1B7817490020095E144C002501
:103E3000605F154D2E780196154E36780096FFF787
:103E400029FF2A885300D3185B0021885B189BB296
:103E50002380104909780029E1D09100511A4900C6
:103E6000A0208000844661448B42D8DD054BD200FF
:103E7000198852181A80024B00221A80CFE7C046D8
:103E8000F28F0220F48F0220F68F0220FD8F022095
:103E9000FC8F0220FF8F022010B5040002E00134E5
:103EA000FFF7A0FF20780028F9D110BDF8B5DE4655
:103EB00057464E464546E0B5824689469346984663
:103EC0000AAB1F7800261FE05346E0184B46F11856
:103ED00009B200B24246FFF7B9FD6D00EDB2013400
:103EE000E4B2072C0ED86BB2002BEDDB4745F4D0C3
:103EF0005346E0184B46F11809B200B23A00FFF7FA
:103F0000A5FDEAE70136F6B20E2E06D85B461B0188
:103F1000F318054AD55C0024E3E7F0BCBB46B24683
:103F2000A946A046F8BDC046B0E8001070B582B002
:103F3000050010E001350A4B1B780A490020095E94
:103F4000094C0026A05F094E36780096FFF7AEFFB9
:103F50002388083323802A78002AEBD102B070BD71
:103F6000FD8F0220F48F0220F28F0220FC8F0220AE
:103F7000F8B5050017001E000C000CE0A0000019A9
:103F800080016B10C018054BC0187A1B521000211D
:103F900004F0D6FC0134A642F0DCF8BD98230020E2
:103FA00010B58300084A944663441C68402262406E
:103FB000C02414408022520113431C60C000034BF4
:103FC0009C466044416010BD04C001400040014077
:103FD00010B501238340D02212069362936105211C
:103FE000FFF7DEFF10BD0000034B1B6802201840E6
:103FF000431E9841C0B2704700C00640EFF31080E6
:1040000072B6034B1B68002BFBD0BFF35F8F70476A
:104010002C0100D0BFF35F8F024B00221A6080F3A7
:10402000108870472C0100D0F8B506000C00150070
:10403000FFF7E4FFE308F718F15C072222400123B1
:1040400093400B4205D1DBB20B433B70FFF7E2FF1D
:10405000F8BD2100280001F0F9FDF0B583B006009D
:10406000019114001F00FFF7C9FF00E00134BC42BA
:104070000CD8E308F518F35C0721214001228A409F
:104080001A42F3D1D2B21A432A7001E001246442E9
:10409000FFF7C0FF002C02DB200003B0F0BD019B46
:1040A000002BF9D0089801F0D1FD0000002307E0B3
:1040B000054A9A189200BFF35F8F00211160013307
:1040C0001F2BF5D97047C04640000034054A1078D0
:1040D000431CDBB21370172B02D9130010221A7085
:1040E0007047C04654030020074B9B681030800087
:1040F0001950BFF35F8FBFF35F8F044B002119602E
:1041000082F310887047C04600ED00E0240100D023
:1041100010B5091A081F0A4B9C466144094A91428E
:1041200008D8C30706D440104005400D064B18437D
:1041300080B210BD054B064AA321064801F0ECFCF5
:10414000FC070000FE0F000000E0FFFF08F6001073
:1041500078F8001038F6001010B5091A04394C0828
:10416000090B08D14905490D064A11430180064B48
:104170002343438010BD054B054AAB21054801F0A0
:10418000CBFCC04600F0FFFF00F8FFFF94F60010E4
:104190004CF8001038F6001001238340034A1068E1
:1041A0001840431E9841C0B27047C04600E100E08D
:1041B000002904D0034B1860034B18607047034B71
:1041C0001860FBE780E200E000E100E080E100E051
:1041D00010B5012383401800FFF7EAFF10BD00006F
:1041E000024B9B6810308000C058704700ED00E023
:1041F00070B504000D00EFF3108672B60C4B1B680F
:10420000002BFBD0BFF35F8F2000FFF7E9FF094BC6
:10421000984201D0A84205D1320029002000FFF7C2
:1042200063FF70BD044B054A8621054801F074FC0C
:10423000240100D0CD010010A4F6001094F8001065
:1042400038F60010F0B5CE46474680B583B006007C
:104250000D00EFF3108872B6564B1B68002BFBD095
:10426000BFF35F8F544B9A6834001034A300D758C3
:10427000524B9F4207D0AF4200D198E00197504B7C
:10428000FB1A2F2B09D9424639003000FFF72CFFCB
:1042900003B0C0BCB946B046F0BD3000FFF77CFFAC
:1042A000814600213000FFF793FFBFF35F8FEFF3EC
:1042B0000581002901D08C4211D10123019C9C432E
:1042C0000022A368AB4212D00622A256002A0DDBC0
:1042D00053009B189B002200394CE418F1E736216B
:1042E000384B394AFF31394801F016FC2200AB4205
:1042F00056D106256557002D38DB6B005B199A00F7
:104300002F4B9B189A68A260DA79E27106229A56BE
:10431000A2719B795BB2002B0FDA2D48A0806B0055
:104320005B199B00264AD3182A4A11789971157097
:1043300049463000FFF74CFFA5E7201D6B005B19D5
:104340009B001F4A9B181A1D9B88D90A1C2907D15C
:104350005B055B15023359005118FFF7D9FEDDE705
:104360001D4B1E4AB121194801F0D6FB002912D17C
:10437000002A0ED0FF239371194B9380154A1378AE
:10438000A371184B0E49641A644163431B0D1370EB
:10439000CEE70A4FF2E7201D1349FFF7DDFEC7E71E
:1043A0006A21124B084AFF31084801F0B5FB034F60
:1043B00069E7C046240100D000ED00E0CD01001007
:1043C00058030020B8F7001064F8001038F6001009
:1043D00001BD0000FB8F0220A0F7001084F8001040
:1043E00001BDFFFFAAAA000092030020ECF7001015
:1043F00070B5012101432E4BCB1A2F2B28D8EFF398
:104400000583002B2BD0EFF3108C72B6294A12686B
:10441000002AFBD0BFF35F8F274A0400244D641BA2
:1044200064416243120D54B2244A92689B00D258F0
:104430008A421BD00022032A32D853009B189B00CB
:104440001B49CB189B795BB2A3421FD00132F2E724
:10445000C7211B4B1B4A49001B4801F05DFB922101
:104460001A4B184AFF31184801F056FB134A92685C
:104470001749D150174B1A7882711C70BFF35F8FA8
:104480000C4B00221A608CF3108870BD0D00530095
:10449000991889006918FF268E710F4A8A80E9E70A
:1044A000D1210E4B074A4900074801F035FBC046B1
:1044B00058030020240100D0AAAA000000ED00E06B
:1044C000F4F7001030F8001038F600101CF8001057
:1044D000CD010010FB8F022001BDFFFF28F8001066
:1044E0000022044B02E0044902C30132072AFAD930
:1044F0007047C04600E400E080808080024B9C460C
:1045000061448900016070474000003410B5040028
:10451000FFF7DCFD01002000FFF7F0FFFF23237110
:10452000BFF35F8F10BD10B50400FFF7CFFD010092
:104530002000FFF7E3FFFF23237100236371BFF324
:104540005F8F10BD70B505000C00080000F046FE3E
:104550000949200000F086FDFFF7B8FD074B9C4697
:104560006044800068602C75D0231B061B786B7537
:10457000A400034BE55070BD894800104000003492
:10458000101900200A4B1A68EFF3108172B61368F5
:10459000002BFCD0BFF35F8F054B1B68BFF35F8F11
:1045A00000221A6081F3108840BF0020002170476C
:1045B000FC22002010B5002922D003681B7B994201
:1045C0001ED8174B9C466144090183689C46614490
:1045D0000C684968002A19D003681B7B9A4215D8D9
:1045E00083680F488446624412019A181068536821
:1045F000020001208B4201D80ED00020C0B210BDB5
:10460000084B094A3C21094801F086FA054B064A45
:104610003C21064801F080FAA242EFD8EDE7C046FF
:10462000FFFFFF0F64FA001094FC001010FA001056
:1046300010B500291ED0037B99421BD84B005B1894
:10464000033B0468A4466344002919D0002A1DD006
:10465000914221D0002A25D0047BA24222D80468AE
:1046600050008018033820188170197800291FD154
:104670001A7010BD104B114A6821114801F04CFA14
:10468000104B114A6F310E4801F046FA0F4B0E4A9B
:1046900070210B4801F040FA0D4B0B4A712108487C
:1046A00001F03AFA044B054A6821054801F034FA52
:1046B00041701A70DDE7C04688FA001000FD001056
:1046C000A4FA00100CFB0010DCFC001018FB00101A
:1046D00024FB001070B506000D001400002914D052
:1046E000002A14D0806873689847002806D02200FA
:1046F00029003000FFF79CFF280007E02A00210076
:104700003000FFF795FF200000E0100070BD0800AA
:10471000FCE70000F0B583B00500009201930AABFE
:104720001C780BAB1F78002C26D003685A7B944270
:1047300007D10123002B19D1002C3BD1200003B05D
:10474000F0BD002C0CD01A7B944209D81A68630083
:104750001B19033BD3189B78002BEBD00123E9E70F
:104760003E4B3F4A68213F4801F0D6F93E4B3F4A55
:1047700067213F4801F0D0F903689C7B002CDBD017
:1047800012D01A7B94420FD862001219033A1968AA
:104790008C46624451789973002900D1D973002363
:1047A000937053701370C7E72C4B2D4A68212D4826
:1047B00001F0B2F9002C3AD02B681B7B9C4236D812
:1047C0002C4BE3181B01AA6894466344009A1A60B4
:1047D000019A5A60089A9A60099ADA602E68002C49
:1047E0002BD030D0337B9C422DD863001B19033B68
:1047F00032689446634400229A705A701A70717B32
:1048000022003000FFF766FF7073844200D095E706
:10481000287D009A019B00F06DFC061E01D0002F40
:1048200017D00C9B002B00D188E71E7086E7124B37
:10483000124A3C210E4801F06FF9114B114AA52193
:10484000084801F069F9054B054A6821054801F05F
:1048500063F92868210000F085FEE2E788FA00107D
:1048600000FD0010A4FA00103CFB00100CFD00102D
:1048700010FA0010FFFFFF0F64FA001094FC001004
:104880000CFA0010F0FC0010F0B5DE4657464E461C
:104890004546E0B58BB00990002308938200B54BE4
:1048A000D658370052E0B44BB44A3F21B44801F027
:1048B00033F9B44BB44A3C21B44801F02DF9002936
:1048C00001D1002869D10021404600F041FEA042FC
:1048D00019D12A686B6806920793AB689846EB6813
:1048E0009A464346002B14D0002C18D03B681B7B03
:1048F0009C4214D8631EFA68D35C08931B021843C9
:104900003861002015E0A24BA24A8E219F4801F099
:1049100003F9A14B9F4A92219C4801F0FDF8994B65
:104920009E4A4121994801F0F7F800239A4698469B
:1049300000207B68BFF35F8F00221A6086F3108827
:104940004346002B32D1002800D10CE100F046FB99
:1049500002000B1EA7DB002000210690079178685B
:10496000EFF3108672B601680029FCD0BFF35F8FA9
:10497000396888464C7B002CD7D09AD0097B8C4272
:1049800097D8874965182D01B9688C466544286811
:104990006968801A9941002991DD2A686B68099835
:1049A00000F0A8FB00239A469846C2E7089B1B022A
:1049B0002343994651461800C04705000E007A6807
:1049C000EFF3108B72B6136859424B41D9B2002BEA
:1049D000F9D1BFF35F8F002E1EDB002E46DD3B6951
:1049E000002B47D04B456DD100F0F8FA02000B1EAA
:1049F0006EDB52197341002B70DB002B72DB002140
:104A00000491013103910294514601914146009174
:104A10003800FFF77FFE4CE03B69002BDDD04B45B3
:104A200014D1069A079B521BB341002B14DB002BB9
:104A300016DB00210491013103910294514601914A
:104A4000414600913800FFF765FE32E0554B514A70
:104A5000A1214E4801F060F801225242524BE6E794
:104A6000454B464A3F21464801F056F8002E01D1F9
:104A7000002DB4D13B68002C50D05A7B944237D1E2
:104A8000012100294AD1DA7B002A4DD19A7B002AE4
:104A900003D1DA7B002A5AD19C73DC73002C5CD0E2
:104AA0003B681B7B9C4258D8FA68013C135D01337C
:104AB000135500233B617A68BFF35F8F13608BF35C
:104AC000108843E7374B334AA421304801F024F8DB
:104AD000294B2A4A3F212A4801F01EF8012252425E
:104AE000314B8AE7244B254A3F21254801F014F831
:104AF000002C0DD01A7B94420AD862001219033A96
:104B00001868844662449278002ABAD00121B8E736
:104B1000264B274A6821274800F0FEFF264B274AEC
:104B2000F621244800F0F8FF002A0AD0197B8A42B7
:104B300007D851008A18033A19688C4662445470A9
:104B4000A4E71A4B1A4A68211A4800F0E5FF1C4BEB
:104B50001A4AFB21174800F0DFFF0A4B0F4A412198
:104B60000A4800F0D9FF0BB0F0BCBB46B246A946DC
:104B7000A046F0BD1019002020F9001060FC0010C4
:104B80003CF9001064FA001094FC001010FA0010B8
:104B900064FB001078FC00107CFB0010B8FC0010D7
:104BA000FFFFFF0F88FB0010FFFFFF7F88FA001058
:104BB00000FD0010A4FA0010C4FB0010CCFC001093
:104BC000E8FB001010B50C4B5B68002B04D00A21E9
:104BD0000A48FFF793FC10BD074C2300084A102138
:104BE000206800F0C5FB032000F0ECF90321200051
:104BF000FFF7A8FCEBE7C046A0030020FC22002042
:104C0000B545001010B5064B5B68002B01D0044879
:104C100010BD044B044A5E21044800F07DFFC046ED
:104C2000A0030020FCFB0010A0FC001010FA0010F4
:104C3000F0B5DE4657464E464546E0B58BB0804659
:104C400016001F00149B9A46159B994616AB1B78BD
:104C50009B461F2302AA9446634400221A702BE04D
:104C6000002809D042461268127B904204D8421EA6
:104C70004146C9688A5C41E0404B414A4121414874
:104C800000F04AFF07984CE0361BAF41002F07DBCE
:104C9000002F11DA3C4B3D4A3F213D4800F03CFFDC
:104CA000012676423B4FF3E7374B384A3F213848DD
:104CB00000F032FF002F4FDB43465A68EFF31084B9
:104CC00072B6136859424B41D9B20791002BF8D103
:104CD000BFF35F8F1F3302AA9446634404930023FB
:104CE000039302934B4601935346009332003B00DB
:104CF0004046FFF70FFD031EB2D10200414649684E
:104D0000BFF35F8F00250D6084F31088002B29D03E
:104D10001F2302A98C4663441B78002BB2D11202D8
:104D20001043002B20D05B46002B1DD04946D047B6
:104D300004000D0003000B431DD00029A4DB00F08C
:104D40004DF906000F1EAFDB36196F41002FB1DAA7
:104D5000012676420F4FADE70B4B0C4A3F210C4822
:104D600000F0DAFE012040420BB0F0BCBB46B24678
:104D7000A946A046F0BD0798F6E7C04664FA0010C1
:104D8000B8FC001010FA001020F9001060FC0010B0
:104D90003CF90010FFFFFF7FF8B504004268EFF315
:104DA000108572B6136858424341D8B2002BF9D12E
:104DB000BFF35F8FCBB22268567BB3421BD1012079
:104DC000002848D0206988422BD0090AC9B2002B9C
:104DD0002ED02068007B83422AD8581EE668305CBB
:104DE00088422BD000206368BFF35F8F00221A60D7
:104DF00085F31088F8BD002B0DD0167BB3420AD87E
:104E00005E00F618033E1768BC466644B678002E6E
:104E1000D6D00120D4E7134B134A6821134800F081
:104E20007BFE9521124B134A4900134800F074FE93
:104E3000124B134A4121104800F06EFE1900100079
:104E400000F090FB0028CED132210E4B094AFF31F1
:104E5000094800F061FE23698B42C4D1002323611D
:104E6000C1E7C04688FA001000FD0010A4FA001047
:104E700020FC001048FC001010FA001064FA00102A
:104E8000B8FC001044FC001070B584B005000C00A4
:104E9000EFF30583002B1ED1FFF7B4FE002302932E
:104EA0000193224B00932A002300FFF7C1FE061E48
:104EB00023DD20BFFFF7A6FE3100FFF76DFF1C4B7F
:104EC0005B6A9C422DD81A4A926AAA422CD29C4212
:104ED00025D0012026E0164B5B6A994209D8144A76
:104EE000926A824207D2994201D001201AE0002042
:104EF00018E0002016E0012014E00D4B5B6A9C4294
:104F000009D80B4A926AAA4207D29C4201D00120DA
:104F100008E0002006E0002004E0012002E000207C
:104F200000E0002004B070BD0120FBE785450010C3
:104F30000040054070B5EFF305801038EFF3108C9A
:104F400072B61A4B1B68002BFBD0BFF35F8F012298
:104F50001300834016494B6316490B6016490978C4
:104F60000C00C440224214D0114A546A8200134DEE
:104F70005259944206D38200114C125999430E4B58
:104F8000197007E00A4A031D9B00995899500022A6
:104F900000E00022BFF35F8F044B002119608CF307
:104FA0001088002A00D0904770BDC046280100D06C
:104FB000004005403C700540FE8F02200423002085
:104FC0005812002010B50100024A0348FFF72CF8E0
:104FD00010BDC04624FD0010FA8F0220044B5B6A0E
:104FE000034A906A1900536A9942F9D17047C04642
:104FF00000400540084B5B6A01E0074B5B6A8B424F
:10500000FBD301E0044B5B6A8B4203D1024B9B6AEA
:105010008342F7D37047C0460040054070B5040096
:105020000D00FFF7DBFF02000B00200029008018B5
:1050300059418B4202D804D1824202D90120404218
:10504000C117002902DBFFF7D5FF70BD024B034AF1
:105050003F21034800F060FD20F90010E8FD00103A
:105060003CF9001070B504000D00EFF3108672B625
:105070001B4B1B68002BFBD0BFF35F8F002D1CD098
:105080002000FFF7ADF8174B83420BD0190020002A
:10509000FFF7AEF801212000FFF79AF80123A340A3
:1050A000114A1360A400114BE550BFF35F8F0C4B06
:1050B00000221A6086F3108870BDA2000B4B0021FD
:1050C000D1500122A2400A490B7893430B70054945
:1050D0002000FFF7B7F800212000FFF779F8E4E798
:1050E000280100D0354F00103860054058120020CC
:1050F000FE8F0220F0B5DE4600B584B00400150036
:1051000001921E000293FFF769FF03958E4202D8B9
:105110004ED185424CD9EFF3108B72B6274B1B68EA
:10512000002BFBD0BFF35F8F254A17780125A540E0
:10513000EBB23B431370234B5D63221D9200019938
:10514000D150A2002049029850501B6A2B4212D124
:105150001C4B1B6C2B4208D00020BFF35F8F174BFA
:1051600000221A608BF3108823E0184B184AC521DF
:10517000184800F0D1FCFFF731FF8E4214D802D15D
:10518000039B834210D80E4B1B78BB420ED00D4BB5
:105190001D625D631F2004400123A3400E4A13607B
:1051A000074B1F701E38D8E70020D6E70120D4E750
:1051B000012004B080BCBB46F0BDC046280100D031
:1051C000FE8F0220004005400423002048FD00100F
:1051D000CCFD00106CFD001080E200E0EFF3108CBD
:1051E00072B60B4B1B68002BFBD0BFF35F8F012304
:1051F0008340084A136208490A789A430A70BFF349
:105200005F8F034B00221A608CF310887047C046F2
:10521000280100D000400540FE8F022010B5002973
:105220001ED0037B99421BD84B005B18033B0468DC
:10523000A4466344002919D0002A1DD0914221D0F0
:10524000002A25D0047BA24222D80468500080188E
:10525000033820188170197800291FD11A7010BDE9
:10526000104B114A6821114800F056FC104B114AAE
:105270006F310E4800F050FC0F4B0E4A70210B4866
:1052800000F04AFC0D4B0B4A7121084800F044FC29
:10529000044B054A6821054800F03EFC41701A7035
:1052A000DDE7C04688FA001008FF0010A4FA0010DD
:1052B0000CFB0010F4FE001018FB001024FB001083
:1052C00070B506000D001400002914D0002A14D077
:1052D000806873689847002806D0220029003000B3
:1052E000FFF79CFF280007E02A0021003000FFF7AD
:1052F00095FF200000E0100070BD0800FCE70000F2
:1053000010B50023437301338373037BC3730123FD
:10531000027B9A4214D9002B0CD0027B934209D80D
:105320005A00D218033A01688C4662440133DBB25A
:105330005370EDE70B4B0C4A68210C4800F0ECFB76
:10534000002A09D0924207D8016853009A18033AFC
:105350008A180023537010BD024B034A682103488A
:1053600000F0DAFB88FA001008FF0010A4FA001021
:1053700010B5017342608360FFF7C2FF10BD0000EB
:1053800070B50400081E00D170BD002934D0237B05
:10539000994231D84B005B18033B22689446634422
:1053A0005A78002AF0D02DD0237B9A422AD8530075
:1053B0009B18033B21688C4663445D78002159703B
:1053C000002825D0237B984222D843001B18033B9A
:1053D00021688C4663440021597001002000FFF7CA
:1053E0006FFF060029002000FFF7CAFF020031000E
:1053F0002000FFF765FFC7E7084B094A6821094805
:1054000000F08AFB054B064A6821064800F084FB41
:10541000024B034A6821034800F07EFB88FA001023
:1054200008FF0010A4FA001070B505000C0016006B
:1054300000292FD034D0037B994231D84B005B1820
:10544000033B0268944663445A78002A2ED19A7826
:10545000002A31D11978FFF793FF0300002E0AD0FC
:10546000EA7B002A2ED1AA7B002A03D1EA7B002AFC
:105470003BD1AC73EC73002B3DD1002C4FD02B7B78
:105480009C424CD82B6861000C19033C1C1900236A
:10549000637070BD254B264A3821264800F03CFB3E
:1054A000254B264A6821264800F036FB254B204A2A
:1054B0003A21204800F030FB234B1D4A3B211D4878
:1054C00000F02AFB002A0AD0297B8A4207D8510023
:1054D0008A18033A29688C4662445470C3E7164B15
:1054E000164A6821164800F017FB184B104A422153
:1054F000104800F011FB002B0BD02A7B934208D8F8
:1055000043001B18033B2A689446634400229A70A8
:10551000B3E7094B094A6821094800F0FDFA064B38
:10552000064A6821064800F0F7FAC04600FE00105F
:10553000E0FE001008FE001088FA001008FF0010BE
:10554000A4FA00105CFE001084FE0010E8FB0010BE
:1055500070B504000A00457B2900FFF765FF607302
:10556000280070BD70B50400002967D0437B8B42D2
:105570000ED0002911D0037B99420ED84B005B1846
:10558000033B0268D0188378002B0CD1002056E032
:105590000121FFF7DDFF012051E0294B294A682155
:1055A000294800F0B9FA002B20D0227B93421DD865
:1055B0005A00D318033B2268D2182568EB5C8B4253
:1055C0001AD0002B1BD0227B934218D85A00D31834
:1055D000033B2268D21853788B4216D0002BF0D1AF
:1055E0001A4B1B4A6B211B4800F096FA144B154AC4
:1055F0006821154800F090FA4378137007E0104BCB
:10560000104A6821104800F087FA4378537000234D
:105610008370437001222000FFF706FF0200617BC8
:10562000814205D02000FFF74BFE6073012006E0A9
:10563000094B074A7121074800F06EFA002070BD3F
:1056400088FA001008FF0010A4FA001028F80010D3
:10565000C8FE001008FE0010A8FE001070B504007F
:105660000D00062000F07EF9C000290001F01AFCB0
:10567000C60908D00E4B9E4217D87F231840013030
:105680003500460800E001256562A6622C348020C2
:105690008001044300232360062000F063F98000AA
:1056A000A901891901F0FEFB70BD0026014DEBE751
:1056B000FEFF0000FFFF0000002909D00A22064B70
:1056C0009C466044434258414000044BC2527047DC
:1056D00080225200F3E7C0460080FCBF90230020E8
:1056E00070B505000C00062000F03CF9002829D018
:1056F000164B9D4227D08022D203154B1A60154BC2
:105700001A60154B9B6811009943FAD100212800BB
:10571000FFF7D2FF21002800FFF7A0FF2C002C3458
:10572000E96A60224A406E211140802252012243E0
:1057300011600A4B2B6380239B01234310221A60C4
:105740000323AB6470BD80221204D6E700800340BF
:1057500000E0004000F0004000C0004001030000F5
:10576000F8B5DE4657464E464546E0B505000F0003
:1057700092460A9A93424ED31A0E91461E020A9AF4
:1057800000233000494601F0CBFB80466C006419D1
:10579000A4002F4B9C4664446368834200D260603F
:1057A0002B1FDBB29B46012B3BD9C0239B0123431C
:1057B000802212011A60AB00264A9958002905D0B0
:1057C000506901F06FFB01300138FDD153465A0199
:1057D00023685A40E0231A4080235B0123431A6068
:1057E0005A46012A28D980239B0123438022120193
:1057F0001A6043466360424600233000494601F088
:105800008FFBAD00134B58510120F0BCBB46B24694
:10581000A946A046F8BD104B104A2D21104800F0B3
:105820007BF9012FC1D1C0239B01234303221A60BE
:10583000A368DB07FCD5C9E72168794003220A4049
:105840001A60A2680123BB401342FAD0CBE7C046DE
:10585000008000407412002014FF001088FF001028
:1058600028FF001030B583B00C2000F017F9FEF7C8
:10587000BBFB00280DD0002304E099002D4A2E48E0
:1058800088500133092BF8D92A4B2C4A5A6203B0AD
:1058900030BD2B4B00229A6700F008F9294B0122FA
:1058A0001A60274B5B6C012BFBD1274B03221A603C
:1058B000234B9B6B012BFBD1013300930433234A11
:1058C0000121234800F054F805230093214A0121C7
:1058D000214800F04DF8214B0093002202210420C2
:1058E000FFF73EFF1E4D00952B00002201210520F1
:1058F000FFF736FF104C0094230000220021072000
:10590000FFF72EFF00942300002200210820FFF75C
:1059100027FF0A4B00932300002200210920FFF7F4
:105920001FFF00952B00002200210620FFF718FF23
:10593000ADE7C04674120020006CDC021BB700000B
:10594000008000403CB0004030B00040002F68595B
:1059500000800240008C864700C00240001BB70058
:10596000405973078000014BC058704774120020E3
:10597000F0B5C64600B504000D00170098460C208F
:1059800001F090FA0600394BFA18394B9A4241D887
:1059900043011B1A9901C91AC90009188901380065
:1059A00001F080FA0200103A98235B009A4237D83F
:1059B0004346013B062B39D8069B013B062B35D8C5
:1059C0003F09B74238D343461E04069B1A031643C9
:1059D0002368002B36DB274B9C4244D080225201A7
:1059E000254B1A60254B1A60254B9B681100994383
:1059F000FAD12560A060231DC02292011A43212301
:105A000013602368002BFCDAE6600823136080BC77
:105A1000B846F0BD1B4B1C4A11211C4800F07CF815
:105A20001B4B194A1921194800F076F8194B164AF0
:105A30001C21164800F070F8174B134A2321134815
:105A400000F06AF822683F231340AB42C3D1A36839
:105A50001B051B0D8342BED1E368EE22D202134028
:105A6000B342B8D1D3E780229201B9E780E84BD3A3
:105A700080F8A93200C0024000E0004000F0004081
:105A800000C0004098FF0010D8000110F8FF00107F
:105A90005400011070000110BC00011080239B0015
:105AA0000343014AD362704700800540064BAA2297
:105AB00012011A602F22DA60044B054A1A60024B69
:105AC0005B68002BFBDA7047004002400060024038
:105AD00000B0FA0000BEFDE703000A4A1268002A7F
