:020000041000EA
:10000000002008205D0100101301001015010010F0
:100010001101001011010010110100101101001058
:100020001101001011010010110100101701001042
:100030001101001011010010190100101B01001026
:100040001D0100101D0100101D0100101D010010F8
:100050001D0100101D0100101D0100101D010010E8
:100060001D0100101D0100101D0100101D010010D8
:100070001D0100101D0100101D0100101D010010C8
:100080001D0100101D0100101D0100101D010010B8
:100090001D0100101D0100101D0100101D010010A8
:1000A0001D0100101D0100101D0100101D01001098
:1000B0001D0100101D0100101D0100101D01001088
:1000C0001D0100101D0100101D0100101D01001078
:1000D0001D0100101D0100101D0100101D01001068
:1000E0001D0100101D0100101D0100101D01001058
:1000F0001D0100101D0100101D0100101D01001048
:100100001D0100101D0100101D0100101D01001037
:1001100000BE00BE00BE00BE00BE00BEEFF3058004
:10012000103800BEF2EB887104410110304101101B
:10013000A801001090A31AE7D3DEFFFF42012110AF
:10014000FF010000AC4F0100793512AB4FF0000009
:100150002049086006C881F3088810474FF05040D6
:10016000006810B14FF00000F2E70FA40ECC002998
:1001700002D000F015F8F9E71749184A002000E00E
:1001800001C19142FCD1002080F30A8814498847BC
:10019000144988471449884700BEFDE701C901C2D8
:1001A0009A42FBD3704700BF30410110100100207C
:1001B000C4100020E45001100000082000000820B6
:1001C000E45001100010082000100820000000007A
:1001D0007047000008ED00E0C4100020989B02204A
:1001E0003D5B0010E1120010015B0010F8B500BF8C
:1001F000064B0749C91A891048BF0131491003D07D
:10020000044B0BB101481847704700BFC4100020D1
:10021000C41000200000000008B5054B1BB10549C3
:100220000548AFF30080BDE80840FFF7E1BF00BF1D
:1002300000000000F83C002040C0001038B57B4DA5
:100240002C68002C00F0A68044F001042047784B75
:10025000784A9B692A609A0600F182804FF05043E9
:100260001B68012B00F0BD800122734B1A60734B99
:10027000B3F900307F2B00F0AD806D4A936913F025
:100280002003FBD17F206E4910600A68013A00F11B
:100290009F800A60632A40F38F80002302202B6036
:1002A00038BD634B674A9B692A609B0658D44FF060
:1002B00050431B68012B00F09E8001225E4B1A60A8
:1002C000614A5E4B1178B3F900308B4200F08C80AC
:1002D000574A936913F02003FBD10D29116000F0F8
:1002E0008D807F2971D0564803685A1C0260574898
:1002F000C154CFE74E4B564A9B692A6098062FD4CB
:100300004FF050431B68012B5CD001224A4B1A600E
:100310004A4BB3F900300A2B00F08180444A9369BC
:100320009B06FCD40A231360B7E7414B494A9B69FB
:100330002A609C0614D44FF050431B68012B6BD0ED
:1003400001223D4B1A603D4BB3F90030202B5CD0AD
:10035000374A93699906FCD42021364B11602B60F3
:10036000012038BD324B3C4A9B692A60D806F7D43D
:100370004FF050431B68012B21D001222E4B1A60F5
:100380002B4A9369D906FCD411682E4B2E4A2B6058
:100390001170E5E7642221462C4806F0B1FE284B97
:1003A000234A1C609369D90606D49369DB06FCD402
:1003B00013689369DC06F8D5274B2B60D0E7274AF2
:1003C0001360DDE7254A1360A2E7224B2B60C7E7E5
:1003D0000B60F1E7164A93699B06FCD40D2313606A
:1003E0004BE71E4A136042E7114A93699C06FCD40E
:1003F0000D2313606CE7194A136061E7104A134834
:100400001168134A43542A60AAE7094A9369980677
:10041000FCD40D2313609BE7104A136093E7044A52
:1004200093699906FCD40D23136077E7183E0020EA
:10043000000007404E0200103C3D0020803F00209D
:10044000383D0020A2020010929B0220503D002067
:10045000F40200102A03001064030010403D002045
:100460002DE9F84F3F4B1F68002F78D13E4BD3F852
:100470000080B8F1000F1CD13C4E47463C4CDFF8E1
:10048000F490336811E000233A4D03EB430309EB8A
:10049000830328469B689847236832680133934258
:1004A000236005F10C05F0DB1346002B2760EADC26
:1004B000FEE7B8F1010F01D0BDE8F88F2C4C2B4EB0
:1004C000DFF8B090DFF8BC802B4DDFF8BCA0D8F887
:1004D000003032680133002AC8F80030276000DCA1
:1004E000FEE7DFF890B02F6002F0DCFD2368CAE978
:1004F000000103EB430309EB83039B6858469847CD
:100500002B68012B08D023683268013393422360A3
:100510000BF10C0BDBDAE6E72268184951F82230C0
:10052000013341F8223002F0BDFD8E46D4F800B010
:10053000134BDAF8041053F83B2003EBCB0CDAF83A
:100540000030D31ADCF8042062EB01021B180C48BF
:1005500042EB0E0240F83B30CCF80420B7E747F0FE
:1005600001073847443D00204C3D0020203E00203C
:10057000E8300020283E00203C3D0020283F00209D
:1005800048120020203F0020E81200202DE9F84FFB
:100590003F4B1F68002F78D13E4BD3F80080B8F155
:1005A000000F1CD13C4E47463C4CDFF8F4903368BA
:1005B00011E000233A4D03EB430309EB8303284684
:1005C0009B6898472368326801339342236005F1A2
:1005D0000C05F0DB1346002B2760EADCFEE7B8F1E0
:1005E000010F01D0BDE8F88F2C4C2B4EDFF8B090F6
:1005F000DFF8BC802B4DDFF8BCA0D8F800303268A3
:100600000133002AC8F80030276000DCFEE7DFF87D
:1006100090B02F6002F046FD2368CAE9000103EBA9
:10062000430309EB83039B68584698472B68012BCB
:1006300008D0236832680133934223600BF10C0B1E
:10064000DBDAE6E72268184951F82230013341F835
:10065000223002F027FD8E46D4F800B0134BDAF8B2
:10066000041053F83B2003EBCB0CDAF80030D31A1C
:10067000DCF8042062EB01021B180C4842EB0E026E
:1006800040F83B30CCF80420B7E747F00107384783
:10069000483D00204C3D0020243E0020EC3000204E
:1006A000A03E0020403D0020503F00209812002036
:1006B000243F0020F01200204FF050431B6830B45C
:1006C000012B24D024490B68092B05DD30BC002206
:1006D000224B1A60FFF7C4BE0024214A03EB4300FB
:1006E000850054511F4D02EB800043608560581C0B
:1006F0000A280860EAD002330B6000EB400399003F
:10070000545002EB8302184BC2E90103DEE717499C
:100710000B68092B05DD30BC0022154B1A60FFF772
:1007200035BF0024134A03EB4300850054510D4D9F
:1007300002EB800043608560581C0A280860EAD0FC
:1007400002330B6000EB40039900545002EB83022C
:10075000054BC2E90103DEE7203E0020443D0020B6
:10076000283E0020A10A0010A9110010243E0020FC
:10077000483D0020A03E0020F0B505680126044653
:1007800083B005B37E4D256016B9012003B0F0BDDE
:1007900002F088FC7B4FD7E9002390429941F4D3C3
:1007A0004FF050431B68012B00F0E7800122764B8D
:1007B0001A6002F077FC754B0026C01841F1000169
:1007C00038607960DFE7062700970B2732234FF464
:1007D000C8723146142000F0CDFF1421642001F0CE
:1007E00067F90F2001F076F9694801F0EBF932233F
:1007F000C822314640F2B310009700F0BBFF2846F4
:1008000001F068F902214FF4DE7001F051F9304631
:1008100001F058F95F4801F023FD0C2140F2BD10B2
:1008200001F046F95C4801F069F9162140F2BD106B
:1008300001F03EF9594801F061F9202140F2BD1064
:1008400001F036F9564801F059F92A2140F2BD105D
:1008500001F02EF9534801F051F97A21502001F0AE
:1008600027F9304601F02EF93946284601F03CF9C7
:100870007A214FF4AF7001F01BF90F230A222846AA
:1008800040F2DF1100F038FF40F2D511304601F0A0
:100890000FF9304601F016F929460F2001F024F92E
:1008A000414801F02BF90F230A22284640F2B711E4
:1008B00000F022FF40F2AD11304601F0F9F83B485C
:1008C00001F01CF90F230A22284640F28F1100F094
:1008D00013FF40F28511304601F0EAF8344801F088
:1008E0000DF90F230A22284640F2671100F004FF99
:1008F00040F25D11304601F0DBF82E4801F0FEF8C1
:100900000F230A22284640F23F1100F0F5FE40F284
:100910003511304601F0CCF8274801F0EFF840F2ED
:100920002B11C82001F0C4F829460F2001F0DCF893
:100930007721C82001F0BCF829460F2001F0D4F837
:1009400005F040FD1F211C2001F0D8FC2A46294655
:100950001C2001F0F1FC29461C2001F001FD0821BA
:10096000164B17481B68174A83F4005303F470436F
:100970000360044F024D11601BE7134A136018E730
:1009800086070010F81200203C3D002040420F0076
:1009900040C000104CC0001068C0001088C000109B
:1009A000A8C00010C4C0001078C20010D4C000104D
:1009B000D8C00010DCC00010E0C0001000000A40E9
:1009C00000100A4000200A40403D00200F22012371
:1009D00010B443EC40202649264A2748CB63916A4D
:1009E000036840F2FF100B44244C254913616268F0
:1009F0000B68244CA2F5FA62834224F813201DD020
:100A000001330B602049214B0A68214833F812302A
:100A1000FE2ADCBF01320A60C3F30B031D4943F415
:100A2000405303800E228B604FF0000343EC4020C4
:100A30000F2243EC40205DF8044B70474FF4807266
:100A400015480A600368D3E8CF1F01220029FAD1B4
:100A5000C3E8412F0029F6D1BFF35F8F0F4A002171
:100A60001368006801331360C0E88F1FCAE700BF36
:100A700000300B4000000B406809002000000A40D5
:100A8000640900209C180020103D0020F032002056
:100A9000889B022000000840783F0020D0200020E2
:100AA0002DE9F04F0368814687B0002B00F0868265
:100AB00043F001031847C74AC74913680160002B78
:100AC00000F0EB824FF050410968012900F071827B
:100AD0000120C2490860C249013B13600968002334
:100AE000C1E88F3F4FF48062BE49BF4806F0B2FCB8
:100AF000BE49DFF848834FF40072A1F5007006F09C
:100B0000A9FC282402F0CEFA4646B94D05F58067C7
:100B10000FFA84FA35F9021F0022504600F0C6FD94
:100B200036F9021F03220911C1F1780150462980CC
:100B300000F0BCFD0134AF42A4B2E9D1AD4CAE48E7
:100B40002146AE4D38F8022F30F8023F520013FB19
:100B500002F345454FEAA33321F8023FF2D14FF4A7
:100B600080620021A64806F0CBFA01200022A54EA3
:100B7000A54DA6F1020EAF1E4FF400735B1099183D
:100B8000B1F5007FFADA591E0A401A4482420DDD9F
:100B9000B6F900303EF91210318037F912102EF8F4
:100BA0001230B5F90030298027F812300130B0F545
:100BB000007F06F1020605F10205DDD108204FF0A5
:100BC000010A0146DFF838B20494CDF81490564675
:100BD000002E4FEA4A0A48DD0025CDE902160EEB49
:100BE00046090BEB4608029B884905FA03F303F11B
:100BF000800231F912C02A4631F8137001957F4204
:100C00003FB239F9120038F9123000FB07F103FB4B
:100C100007F503FB0CF300FB0CF0891301EBA33386
:100C20003EF912103BF91240C0F38F30C5F38F35F7
:100C3000C1F34F016E1801449BB2C4F34F04491B2A
:100C4000361A29F812602EF81210E11A234428F8F7
:100C500012102BF812305244B2F5007FD1DB019D07
:100C6000039B01359D42BED102990139AFD2DDE926
:100C700004494FF480626649664806F0EBFB4FF486
:100C800080625F49644806F0E5FB01200022634E64
:100C9000634DA6F1020CAF1E4FF400735B10991860
:100CA000B1F5007FFADA591E0A401A4482420DDD7E
:100CB000B6F900303CF91210318037F912102CF8D7
:100CC0001230B5F90030298027F812300130B0F524
:100CD000007F06F1020605F10205DDD108204FF084
:100CE000010ACDE904494B4FDFF82CB15646002EDE
:100CF0004FEA4A0A47DD0025CDE9020607EB46091F
:100D00000BEB4608029B414905FA03F303F180020D
:100D100031F912E02A4631F813C00195CCF1000CEC
:100D20000FFA8CFC39F9121038F9123001FB0CF073
:100D300003FB0CF503FB0EF301FB0EF180133BF9F3
:100D4000124000EBA33337F81200C1F38F31C5F323
:100D50008F359BB2A4B22E180844761A401BE11AB4
:100D6000234429F8126028F8121027F812002BF8F3
:100D700012305244B2F5007FD4DB019D039B013554
:100D80009D42BFD102980138B0D2DDE90449254D1A
:100D9000254A2946254802F5007732F8023F31F806
:100DA000026F974233449BB203F5FA66138020F832
:100DB000026FF2D100261E4B4FF400721D491E48EF
:100DC0001E6006F047FB2826DFF8748008F5806770
:100DD00038E000BFD0200020B60A00103C3D0020C3
:100DE000783F00209C1800209C1C00209C1A0020AA
:100DF000D2200020E22C0020869702209A2000209A
:100E0000DC280020E62C0020DE2800200013002033
:100E1000E42C0020F0380020F0340020F2380020CC
:100E2000F2340020EE380020EE300020EE320020B8
:100E3000103D0020F03A0020F03000209A1C0020E5
:100E4000DA2400200FFA86FA38F9021F00225046F1
:100E500000F02CFC032235F9021F50461141C1F16C
:100E6000C801A8F8001000F021FC0136B845B6B260
:100E7000E8D141F61A7743F67C1500208E4A8F4957
:100E800002F5806632F9023F31F902CF002BB8BF7C
:100E90005B42BCF1000FB8BFCCF1000C9BB21FFA53
:100EA0008CFC63459E4638BFE646634528BF6346D3
:100EB0000FFA8EFE1EFB05FC13FB07F34FEAAC3C5A
:100EC0000CEBA3337345B8BF7346964210800B807A
:100ED000D8D17B4E34F9020F01286DDD0246002384
:100EE00001215210012A1D464FEA410103F101037D
:100EF000F7D1421A033D2A4102EB03131BB223EA46
:100F0000E373A6422380E5D16E4EDFF8008230887D
:100F10004FF4EE74013000B2B0F51F7F0ABF0C230E
:100F200003461846684F338008F5A17501E0B6F90D
:100F3000000038F9023F402BB8BF4023403B1BB2B2
:100F40001A11911E062996BF02F1FF32002217F8EE
:100F5000122021B2A8F8003000F0A8FB013CA845FF
:100F6000A4B2E4D1594BC9F800301EE04FF0504311
:100F70001B68564A012B026000F091800122544BFD
:100F80001A60544B1A68D2E8CF0F01210028FAD119
:100F9000C2E8401F0028F6D1BFF35F8F4E4AC9F860
:100FA000002000221B68C3E88F2F012007B0BDE896
:100FB000F08F4A4801608EE50023A2E7484A0124E9
:100FC00092468346474D13802B8007EE904AF8EEF9
:100FD000E77A17EE900A0AF0FBFF33A3D3E9002368
:100FE00002F09EFB0022404B06460F4602F098FBA3
:100FF00002F02AFE2EA3D3E900238046894630461C
:10100000394602F0B3FB02F024FE002206460F46EA
:10101000364B4046494602F083FB0022344B02F037
:101020007FFB02F023FC32463B462AF8020F31498F
:10103000002002F061FB00222D4B02F071FB02F058
:1010400015FC0134B4F5007F25F8020FBDD102274D
:10105000294C2A49204605F0CDF9294B62685F608A
:101060002368284E284D83F00F033A4003F0CF0346
:10107000336001216A60062001F040F90121072058
:1010800001F03CF90121052001F038F901200F4B56
:10109000CBF8003007B0BDE8F08F0E4B81E70F4A68
:1010A00013606EE7AFF300806F1283C0CA2119404E
:1010B0000000000000F07F40DA280020E22C002031
:1010C000E22E00206009002098C400106C0F001070
:1010D0003C3D0020783F0020B60A0010403D002033
:1010E00000130020889702200000603F0000E03FCE
:1010F0000000D0400000F03F00000840002D31010A
:10110000003008400010084000200840EA2C002071
:101110000368014670B4002B2AD001221B4B0B60E0
:101120001AB31B4B9B699A061FD44FF050431B68A0
:10113000012B20D00122174B1A60174C174D226843
:10114000174BAE5CB3F90030B34217D01048836937
:101150009B06FCD40660531CED5C00222360002D2E
:10116000DCD102200D6070BC7047012070BC70475C
:10117000094C0A4DF0E70B4A1360DEE70448836927
:101180009B06FCD40D230360E0E700BF1C11001098
:10119000000007403C3D0020F43C0020B43D00200E
:1011A000803F0020403D0020036870B5064643B1F3
:1011B00043F001031847114B114A1249124805F038
:1011C000F1FE0022114B124C124D1A600FCD0FC4CC
:1011D00095E8030084E803000F4B0C483360FFF7E9
:1011E00097FF012808DD00220C4B1A600C4B33607E
:1011F000FFF724F80128DED8002070BD143D002040
:10120000183F0020FCC00010503D00201C3E002074
:10121000B43D0020E4C00010D8110010183E00209A
:10122000EC11001070B5C0B047222249064668464E
:1012300006F010F90021B9220DF1470005F060FF1A
:101240002F21684605F0AEFF002831D0441C1A4813
:1012500004F06AFE204604F0E5FD6846174905F0F3
:10126000B7FF174C154D03E02946002005F0B0FFED
:10127000214606F011F80028F6D1104905F0A8FF24
:101280000446104804F050FE204604F0CBFD0E4802
:1012900004F04AFE0D4A0E490E4804F045FE0E4881
:1012A00004F0C0FD31460D4804F03EFE40B070BD74
:1012B0006C46CCE7B4C1001004C100101CC1001082
:1012C00020C1001028C100103CC1001050C1001006
:1012D0005CC1001068C1001070C10010A0C10010F6
:1012E00070B584B06C460A2001F054FE04F052FD43
:1012F0004E4B4F4E0FCB07C468462380FFF792FF3B
:1013000000F0B6F8192001F02DF93060D0E8CF2FA9
:101310000123002AFAD1C0E8423F002AF6D1BFF3E8
:101320005F8F0124434A002533681460C3E88F5F50
:10133000192001F017F93060D0E8CF2F0123002ADF
:10134000FAD1C0E8423F002AF6D1BFF35F8F3A4A94
:1013500033681460C3E88F5F192001F003F930602F
:10136000D0E8CF2F0123002AFAD1C0E8423F002A5B
:10137000F6D1BFF35F8F314A33681560C3E88F5FE2
:101380002F4A304B166828461C642F4901F038F963
:101390002146284601F00EF92C4B0F209A6A16447C
:1013A0001E6100F0EDFF0F2344EC44300E2000F0EE
:1013B000E7FF0E2344EC443005F0A0F8244805F084
:1013C0000FF90A2001F0E6FD4FF050431B68A342DD
:1013D00017D0204A1368092B07DD00221E4B1A6024
:1013E000FFF73EF8002004B070BD0C205E1C1660B4
:1013F00000FB03F219491A4C8D500A44C2E901342A
:10140000EBE7184A1368092B0ADC0C205E1C1660F7
:1014100000FB03F21449124C8D500A44C2E9013416
:101420000022124B1A60FFF7B1F8DBE7FCC1001095
:10143000783F00201C3F0020E02C0020D02000201E
:101440006809002000200B40CD09001000000B406F
:10145000B9060010203E0020443D0020283E002018
:1014600079070010243E0020A03E0020483D0020C7
:101470002DE9F04F2DED028B7F498BB07F4804F0B2
:101480007BFE7F4981467D4804F076FE9FED788B98
:1014900080464FF0000A4FF4402B7A49774804F019
:1014A0006BFE8DED028B09F1080602AC06ADCDF89E
:1014B00014A0CDF810B009F101033603074646EA3F
:1014C000C31694E80F0085E80F00079695E80F0013
:1014D000012684E80F004FF4A023DFF8C4C10621E1
:1014E0001020CDF814C0029300F008FF10223346FC
:1014F00051466248009604F0BBFE23464A465146D8
:101500005E4804F0FBFE4FF4A023069308F10D03A0
:1015100008EB06021B0343EAC21323F0C04343F067
:1015200080430793584B062111200993CDF820B032
:1015300000F0E4FE1122334631465048009604F094
:1015400097FE2B46424631464C4804F0D7FE8DEDBF
:10155000028BCDE904BA07F1080CBB1C4FEA0C3C26
:101560004CEAC31C94E80F0085E80F00DFF834E173
:10157000CDF81CC095E80F0084E80F00062112206A
:10158000CDF814E000F0BAFE0621132000F0B6FEFC
:101590000621142000F0B2FE0621152000F0AEFE58
:1015A0000423122202213548009604F061FE2346EE
:1015B0003A460221314804F0A1FE304604F0F2FE22
:1015C0000446304604F0EEFE03464FF4163E2F4D1F
:1015D0002F493048DFF8D0804FEA841C0CF1A04C32
:1015E00001EA433105EA4435CCF8008041EA443150
:1015F000CCF8040045EA4330274F40F4802041F402
:10160000FC019B0103F1A04340F0110041F00901EE
:101610001A4ACCF808E0CCF810001F60C3F804C0E8
:101620009E6019615368D903FCD440F28F2313499B
:1016300013614B689A03FCD440F2DF130F4A4B61ED
:1016400053685B03FCD440F23F150123956140F2DF
:1016500007704FF0A0421149A3400860C2F850340F
:101660000BB0BDEC028BBDE8F08F00BFAFF3008084
:101670000000010000F00100E4D100100000205043
:10168000C0D10010A4D1001020460044FD1F00FC72
:10169000FD1F7EFC180020506C0900200020205007
:1016A0000002000452024010883F002010B540F2B2
:1016B000DF1E40F27F2C20EAE0707145A8BF714622
:1016C00060454FF42073A8BF604621EAE17111FB29
:1016D0000300084C4110C007635C06D503F00F03FC
:1016E00043EA0213DAB2625410BD23F00F031A4327
:1016F000625410BD883F00202DE9F0411618B04219
:101700002CDA40F2DF129142A8BF114640F27F2846
:1017100021EAE1721F0102EB8202154CFFB2D201F5
:1017200020EAE0714145D4BF02EB010C02EB080C4A
:101730004FEA6C0E14F80E101CF0010F01F00F0CA4
:1017400021F00F0100F1010547EA0C0C41EA030109
:1017500006D028B2B04204F80EC0E1DBBDE8F0814B
:1017600028B2B04204F80E10DADBBDE8F08100BF09
:10177000883F00202DE9F04F02EB000B58459DF803
:10178000246036DA5C183501A1428A46EDB230DABF
:10179000814640F2DF184FF420771B4940F27F2347
:1017A0000FFA89F020EAE0709842A8BF1846524626
:1017B00013B24345A8BF434623EAE37313FB070371
:1017C0004FEA630E11F80EC013F0010F2CF00F0357
:1017D0000CF00F0C02F1010243EA060345EA0C0C7F
:1017E00009D1944201F80E30E2D109F10109D9453D
:1017F000D4D1BDE8F08FA24201F80EC0D8D109F1D2
:101800000109D945CAD1F4E7883F00202DE9F04FFE
:10181000B0F5207F91B09DF868509DF86CC080F2C3
:10182000B080B1F5F07F80F2AC801F46062313FB39
:101830000C03002B40F3A58001EBCC03002B40F3FD
:10184000A0804FF000091FFA80FE974802EB820249
:1018500013182A01D6B28CB22846CDF804C040F243
:10186000DF1ACC467546B14626463A015FFA82FB3E
:10187000CDE90EE304F1080292B2DFF8308204925F
:1018800040F27F22BCF1050F16BF0F9B002413F816
:101890000C400E9BCDE90BC563441BB223EAE373F6
:1018A0009342A8BF1346019A06932BB20593B646FE
:1018B000134431463246254603930D96EE076CD508
:1018C000019C012C00F0BA80059B0CB21E460293CD
:1018D000039B9E423FDA019E2644B4423BDACDE9A7
:1018E00007154FF4207C0546DDF808E0CDE90242FB
:1018F000CDF8249040F27F220FFA8EF929EAE97997
:101900009145A8BF9146029802B25245A8BF5246DF
:1019100022EAE27212FB0C92541018F8041012F032
:10192000010F21F00F0201F00F0100F1010042EA66
:1019300007024BEA010127D1864208F80420E3D1CF
:101940000EF1010E7345D5D128460799DDF8249094
:10195000089D039A0393019C01322144049C92B296
:10196000A2424FEA550589B2A8D1DDE90BC5019B1A
:101970000CF1010CEB18BCF1060F0D9E9DB27FF42B
:101980007FAF11B0BDE8F08F864208F80410BBD1DC
:101990000EF1010E7345ADD1D6E7B842DBD0019C04
:1019A000012C66D0059E039B0CB29E42D3DA019BAC
:1019B0001E19B442CFDA4FF4207CCDE90721CDE9DE
:1019C000095BDDF814E0039B029440F27F220FFADA
:1019D0008EFB2BEAEB7B9345A8BF9346029D2AB270
:1019E0005245A8BF524622EAE27212FB0CB25410D2
:1019F00018F8041012F0010F21F00F0201F00F018E
:101A000005F1010542EA000249EA01010DD1B542A2
:101A100008F80420E3D10EF1010E7345D5D1DDE9BC
:101A20000721DDE9095B039395E7B54208F8041047
:101A3000D5D10EF1010E7345C7D1F0E714B254456C
:101A4000A8BF54464FF42076069B24EAE47414FBA6
:101A500006344FEA640C18F80C60E4074BBF06F03C
:101A60000F0426F00F044BEA04043C4308F80C4032
:101A700071E714B25445A8BF54464FF42076069B34
:101A800024EAE47414FB06344FEA640C18F80C6082
:101A9000E3074BBF06F00F0426F00F0449EA0404E5
:101AA000044308F80C4056E7A8CC0010883F0020FB
:101AB000024A034B10801980704700BF8C9B0220A4
:101AC0008E9B0220012838BF0120014B18807047EF
:101AD000909B0220024A034B10701870704700BFA1
:101AE000949B0220959B0220024A034B10701970B0
:101AF000704700BF959B0220949B02200278002A29
:101B000052D02DE9F0410446284D294F294E82B08C
:101B100011E00D2A0CD02B88092ADFF8A080264975
:101B200018B219D1B3F51F7F03F1040300D22B8043
:101B300014F8012F6AB10A2AEBD100221F49338819
:101B400009882A8003EBC103338014F8012F002A8F
:101B5000F1D102B0BDE8F08198F800E091F800C042
:101B60003B78CDF804E0B6F90010CDF800C0FFF7DF
:101B70004DFE134BB8F8001018782B8801EB410C80
:101B8000A1EB810203EB4C0352009BB202F52072E1
:101B90002B800028CCD09342CADD002233882A80D3
:101BA00003EBC1033380C3E7704700BF8C9B022067
:101BB000959B02208E9B0220949B0220909B0220EA
:101BC000969B02202DE9F04F0646007891B0002840
:101BD00000F04C81A74BA84A93F800E0A74B92F87D
:101BE00000801B88C6450C934FEA0E13D9B2A44B54
:101BF0000191B3F800B040F04981B14640F27F2531
:101C000040F2DF1A8C4606460BF1070292B20092B0
:101C10000BF1060292B29B4B01920BF1050292B2BC
:101C20000292994C03F10F020B9206930BF1010300
:101C30001BB223EAE373AB42A8BF2B460493069B77
:101C4000CDF8149003EB061110231A460B9B12FBE0
:101C500006360C9B5F1A0FFA8BF3BFB223EAE373CD
:101C6000013F039311E0900637D4D00653D41007F8
:101C70006FD4500700F18C80900700F1A780D20745
:101C800000F1C2808E4200F0D78011F8012B7B1842
:101C90001BB25345A8BF534623EAE37303EB830308
:101CA00010064FEAC31300F125825006DBD50498D5
:101CB00000EB03094FEA690814F8080019F0010F56
:101CC00015BF00F00F0020F00F004CEA00004EEAB4
:101CD000000004F808009006C7D50BF1020000B21E
:101CE00020EAE070A842D4BF03EB000903EB05092A
:101CF0004FEA690814F8080019F0010F15BF00F049
:101D00000F0020F00F004CEA00004EEA000004F83B
:101D10000800D006ABD50BF1030000B220EAE0705A
:101D2000A842D4BF03EB000903EB05094FEA690899
:101D300014F8080019F0010F15BF00F00F0020F093
:101D40000F004CEA00004EEA000004F808001007FB
:101D50008FD50BF1040000B220EAE070A842D4BF96
:101D600003EB000903EB05094FEA690814F80800C2
:101D700019F0010F15BF00F00F0020F00F004CEA22
:101D800000004EEA000004F8080050077FF574AF29
:101D9000BDF9080020EAE070A842D4BF03EB0009B7
:101DA00003EB05094FEA690814F8080019F0010F60
:101DB00015BF00F00F0020F00F004CEA00004EEAC3
:101DC000000004F8080090077FF559AFBDF9040042
:101DD00020EAE070A842D4BF03EB000903EB050939
:101DE0004FEA690814F8080019F0010F15BF00F058
:101DF0000F0020F00F004CEA00004EEA0000D2076E
:101E000004F808007FF53EAFBDF9002022EAE27237
:101E1000AA42D4BF9B185B195810225CDB0755BF40
:101E200022F00F0302F00F034EEA03034CEA030310
:101E30008E4223547FF429AF114B0BF1080B1FFA8C
:101E40008BFB0099019AA3F800B0DDF81490029B77
:101E500008310832083319F8016F89B292B29BB287
:101E6000009101920293002E7FF4E0AE11B0BDE824
:101E7000F08F00BF959B0220949B02208E9B022036
:101E80008C9B0220A8C40010883F0020B446B04BB1
:101E90004FEA081203F10F01CDE90AB1D7B240F2BF
:101EA0007F250BF1070240F2DF190446E346A94EF5
:101EB00092B20F930A990D920B4601331BB223EA9B
:101EC000E373AB42A8BF2B4609930BB223EAE3733B
:101ED000AB421846A8BF28468A46102308900F98A0
:101EE000CDF838B000EB04110B9813FB04045346F3
:101EF0000C980094A0EB010C981D0790581D0690BB
:101F0000981C0390D81C04331FFA8CFC059313B261
:101F10000CF1FF3C04900293B5E01AF0010F0BBFE7
:101F200020F00F0000F00F0048EA0000384306F8E8
:101F30000B00BDF90C0020EAE070A842D4BF03EB0F
:101F4000000A03EB050A94064FEA6A0B16F80B0029
:101F500000F143811AF0010F0BBF20F00F0000F0D9
:101F60000F0048EA0000384306F80B00BDF91000E6
:101F700020EAE070A842D4BF03EB000A03EB050A95
:101F8000D4064FEA6A0B16F80B0000F108811AF02C
:101F9000010F0BBF20F00F0000F00F0048EA000017
:101FA000384306F80B00BDF9140020EAE070A8429F
:101FB000D4BF03EB000A03EB050A14074FEA6A0BD0
:101FC00016F80B0000F1FF801AF0010F0BBF20F094
:101FD0000F0000F00F0048EA0000384306F80B003D
:101FE000BDF9180020EAE070A842D4BF03EB000A54
:101FF00003EB050A54074FEA6A0B16F80B0000F1D1
:102000009C801AF0010F0BBF20F00F0000F00F00B2
:1020100048EA0000384306F80B00BDF91C0020EA2E
:10202000E070A842D4BF03EB000A03EB050A940753
:102030004FEA6A0B16F80B0000F1BB801AF0010F93
:102040000BBF20F00F0000F00F0048EA00003843FB
:1020500006F80B0012F0010F029A22EAE2727BD11D
:10206000AA42D4BF9B185B195810325CDB074BBFE8
:1020700002F00F0322F00F033B4348EA03033354FB
:10208000009B994278D011F8012B08980CEB0103C2
:102090001BB24B45A8BF4B4623EAE37303EB830314
:1020A000DB0100EB030A4FEA6A0B140616F80B007B
:1020B00039D41AF0010F0BBF20F00F0000F00F0011
:1020C00048EA0000384306F80B000998540600EB74
:1020D000030A4FEA6A0B16F80B007FF51EAF1AF0E1
:1020E000010F40F0848020F00F004EEA000006F857
:1020F0000B001EE70398A842D4BF03EB000903EBD3
:1021000005094FEA690814F8080019F0010F15BF16
:1021100000F00F0020F00F004CEA00004EEA000033
:1021200004F80800C1E51AF0010F67D120F00F0094
:102130004EEA000006F80B00C7E71AF0010F78D14D
:1021400020F00F004EEA000006F80B0065E700BF24
:10215000A8C40010883F0020AA42D4BF9B185B1976
:102160005810DC07325C57D502F00F03019A134375
:102170003354009B994286D10A9B384908339BB25D
:102180000B80DDE90D2B1BF8014F0A9302F10803C8
:102190009AB2002C7FF48EAE11B0BDE8F08F1AF029
:1021A000010F4DD120F00F004EEA000006F80B00A1
:1021B000F9E61AF0010F28D120F00F004EEA0000D6
:1021C00006F80B0046E71AF0010F2BD120F00F00A4
:1021D0004EEA000006F80B0002E71AF0010F36D1B4
:1021E00020F00F004EEA000006F80B00BEE6019C4E
:1021F00000F00F00204306F80B009AE6019C00F067
:102200000F00204306F80B005FE7019C00F00F0071
:10221000204306F80B001DE722F00F034EEA0303EC
:1022200033542DE7019C00F00F00204306F80B000B
:10223000D6E6019C00F00F00204306F80B00ECE608
:10224000019C00F00F00204306F80B00ABE6019C58
:1022500000F00F00204306F80B0087E68C9B02205D
:102260002DE9F04FDFF88C9090F800B099F800A0BD
:1022700083B0BBF1000F31D01B4C1C4E0546D44639
:1022800020883388DFF87080194F01E099F800C08A
:102290005FFA83FE5A4698F80030B7F9001000B292
:1022A000CDE900CEFFF7B2FA208898F8003096F812
:1022B00000C001305A46B7F9001000B2CDE9003C29
:1022C000FFF7A4FA33882288C3EBC300104480B21E
:1022D000208015F801BFBBF1000FD7D189F800A00D
:1022E00003B0BDE8F08F00BF8C9B0220909B0220C2
:1022F0008E9B0220949B0220959B022010B44FF4E9
:1023000080740C4B53F8202003EB8003C00082F054
:10231000400200F1804003F5805C02F0C00200F54D
:10232000203003F54053CCF8002041601C605DF87C
:10233000044B70470480034010B4084CC90041EAC4
:10234000820154F8202004EB8003514003F58053B0
:1023500001F00C015DF8044B1960704704800340E4
:10236000064B402203EB800319B103F500531A60BA
:10237000704703F540531A60704700BF0480034064
:1023800030B44FF0000343EC440043EC400005251B
:102390004FF480740B4BC20053F8201003EB800005
:1023A00081F0400102F1804303F5203301F0C002C7
:1023B00000F5805100F540500A605D60046030BC5B
:1023C000704700BF048003400FB400B583B0049C85
:1023D000074803F027FD3CB105A92046019103F011
:1023E0005FFB044803F01EFD012003F071FB00BFFA
:1023F0000CC20010B0C10010EFF3108072B6064B93
:10240000D3E8CF1F01220029FAD1C3E8412F0029C8
:10241000F6D1BFF35F8F70477B1800200023034A7B
:10242000C2E88F3F80F31088704700BF7B18002000
:1024300070B58646EFF3108572B6124CD4E8CF6FB4
:102440000120002EFAD1C4E8460F002EF6D1BFF3CA
:102450005F8F4FF0010CC80801F007030CFA03F37B
:102460001EF800C01CEA030608D14CEA030C0EF863
:1024700000C0C4E88F6F85F3108870BD1046FFF769
:10248000A3FF00BF7B180020F8B5EFF3108572B6EC
:10249000234CD4E8CF7F0126002FFAD1C4E8476F40
:1024A000002FF6D1BFF35F8F9A4227D80126D708B5
:1024B00010F807E002F0070C06FA0CFC1EEA0C0FFD
:1024C00000EBD2070DD125E04FEAD20E10F80EE056
:1024D00002F0070C06FA0CFC1EEA0C0F00EBD20708
:1024E00018D001329342EFD24FF0FF300023C4E8FE
:1024F0008F3F85F31088984207DBF8BD0023C4E8BE
:102500008F3F85F310884FF0FF300029F5D00698F3
:10251000FFF75AFF4EEA0C0E104687F800E0E5E799
:102520007B180020044A1078431CDBB2182B28BF0C
:1025300010231370704700BF700900204FF0E02295
:10254000936843F000539360704700BF0021044B31
:1025500003F12002C3E88F1F01339342FAD1704781
:1025600070180020024B00221844C0E88F2F7047DB
:10257000701800204FF0E0234FF08032C3F80024A1
:10258000C3F80424C3F80824C3F80C24C3F81024A7
:10259000C3F81424C3F81824C3F81C24C3F8202457
:1025A000C3F82424C3F82824C3F82C24C3F8302407
:1025B000704700BF012300F01F029340400941B162
:1025C000800000F1604000F56140C0F88031036098
:1025D0007047024A203042F82030704700E100E0A6
:1025E0000123064A410952F8212000F01F008340D0
:1025F000134214BF01200020704700BF00E100E03B
:10260000F8B50D46EFF3108772B6124ED6E8CF2F0D
:102610000123002AFAD1C6E8423F002AF6D1BFF3CF
:102620005F8F0D4B00F110049B680C4A53F8243067
:10263000934203D0994201D000F028FF064B9B68DB
:1026400043F82450BFF35F8F0023C6E88F3F87F322
:102650001088F8BD7918002000ED00E01D01001081
:102660002DE9F04F83B0EFF3108A72B6744ED6E8BE
:10267000CF2F0123002AFAD1C6E8423F002AF6D123
:10268000BFF35F8F6F4B00F110089B686E4A53F8E1
:10269000285095423FD08D420C464AD06B4FEB1BE1
:1026A0002F2B38D801214FEA50194FEA890909F137
:1026B000604909F5614900F01F0301FA03F0D9F8F8
:1026C0000030C9F8800000EA030BBFF35F8FEFF31F
:1026D0000581C9B279B3884577D125F0010EDEF8BE
:1026E00008C0644505D17CE0D3F808C0644532D009
:1026F0009E469EF9062002EB4203002A07EB830365
:10270000F2DA644500F08180BBF1000F20D0C9F8F7
:102710008001C9F800004B4B9B6843F82850BFF379
:102720005F8F0023C6E88F3F8AF3108803B0BDE8AF
:10273000F08F1546EFE725F0010EDEF808C064457E
:10274000D7D19EF906407346002C08DA154666E09C
:10275000C9F88000DFE793F90640002C56DB04EB54
:10276000440C07EB8C0CDCF8082061009A609CF8A4
:102770000720DA719CF90620002A9A715DDBBCF80B
:102780000420520504D502F5FF1202F5FF521F3254
:10279000521502F1020C4FF0040E0C2212FB04E25F
:1027A00002EB4C026FF0070C3A44ACEB030C6244B2
:1027B000C2F34A0242F460429A80254B21441A78BF
:1027C00007EB81011C708A719EE7CDE9000100F0E2
:1027D0005DFEDDE9000125F0010EDEF808C064456C
:1027E00087D19EF906407346002CB8DA194A1A4C74
:1027F000D21A083AC2F30A316FEA01516FEA115155
:1028000044EA5202DA8099807EE773460029EDD1CE
:10281000FF228EF806204BF60152AEF804200C4C35
:102820004AF6AA2294F800C01946C91B49414A43F6
:10283000120D83F806C0227066E74BF60152BBE723
:102840007918002000ED00E01D010010740900203F
:10285000939B0220AE09002000F8FFFFF0B5EFF3D4
:102860000585EDB2EFF3108C72B62649D1E8CF2F73
:102870000123002AFAD1C1E8423F002AF6D1BFF372
:102880005F8F214E40F0010EB4684AF6AA2354F837
:1028900025701E4A0446A41A644163431B0D774504
:1028A0005BB21BD092F906409C421CD092F91240B8
:1028B0009C4223D092F91E409C4221D092F92A409A
:1028C0009C4208BF03240FD0114A002415781370CE
:1028D0008571C1E88F4F8CF31088F0BDB2680D4C44
:1028E00042F82540F0E7002404EB440402EB8402A4
:1028F000FF2494714BF601549480E5E70124F3E73B
:102900000224F1E77918002000ED00E074090020AE
:10291000939B02201D010010014B0B440360704784
:102920007018002070B5104C104DAC420ED2FF262E
:10293000236863B1FFF7F6FD01462046FFF7ECFF81
:10294000A680BFF35F8F0834AC42F1D370BDFFF7B0
:10295000E9FD01462046FFF7DFFF2671BFF35F8FD9
:102960000834AC42E4D370BDB4100020C410002081
:102970000D4B1A68EFF3108172B6D2E8CFCF012069
:10298000BCF1000FF9D1C2E84C0FBCF1000FF4D13B
:10299000BFF35F8F00221B68C3E88F2F81F310887D
:1029A00040BF0020002170477C3F00200000000055
:1029B0002DE9F04F2DED028B85B0EFF30583DBB2EF
:1029C000103B9A0818BF01224FF0010103F00300E9
:1029D00018BFAB4DAB4B08BFAB4D00EB820201FA09
:1029E00000FB53F8226005F541539FEDA38B019046
:1029F000C3F804B0CDF800B02AE0B388180440F161
:102A00008C80B379002B40F0D580B6F908100029EE
:102A1000C0F21581736901EB410103EBC103D3E9F6
:102A20000247B7F1FF3F08BFB4F1FF3F09D0019B58
:102A300005EB8301AB6A0A69D21AE31A934238BFE5
:102A40000C61284600F026FBA042B941C0F2F78095
:102A5000B6F90840009B002CEB63CEDBD6F814904F
:102A600004EB440A284609EBCA07D7E902B800F08C
:102A700011FB584571EB0801BFDBB8F1000FC0F244
:102A8000C180D7E90431814A934200F0EA807A8814
:102A9000B6F9080092B242EA0040984702460B4657
:102AA00052EA030100F0AE80002B80F2CE80BBEB37
:102AB000020B68EB030839F93A30C7E902B8002B7A
:102AC0009BDB716903EB430201EBC202D2E90270A6
:102AD000BB4578EB000C4FEA43028EDBB4462CF882
:102AE000083F0BE031F93230F446002B0DDB03EBED
:102AF000430001EBC0005A00D0E90270BB451A4404
:102B000078EB000001EBC20EECDA29F83A30ACF8B1
:102B10000040B38818043FF574AF3369EFF31082B7
:102B200072B6D3E8CF0F01210028FAD1C3E8401FC5
:102B30000028F6D1BFF35F8F4FF6FF74B0880023F3
:102B4000316900B2B480C1E88F3F82F310889842A7
:102B5000FFF657AF0746A946746906F1080807EB68
:102B6000470E04EBCE03D3E90250B6F90830C44651
:102B7000002BA8BFB34605DA0FE034F93A3094468B
:102B8000002B09DB03EB430A04EBCA02D2E9026122
:102B9000B54270EB0101F0DA5E46ACF8007034F932
:102BA0003E7024F83E30002FD9DAB3794D46002B21
:102BB0003FF42BAF0023B371B6F9083006F10808D3
:102BC000591C3CD01946776903E080465A1C3FF4F3
:102BD0001EAF03EB430207EBC200B0F802C01C4675
:102BE0001CF4004F9E4637F93230EED08C4280ED17
:102BF000028B05D0A8F80030318927F832103481D3
:102C00007146E3E739F83A3033813369EFF31082E4
:102C100072B6D3E8CF0F01210028FAD1C3E8401FD4
:102C20000028F6D1BFF35F8F7388316929F83A30F5
:102C300000237480C1E88F3F82F31088DDE640BF37
:102C400005B0BDEC028BBDE8F08F2846CDE902232C
:102C500000F020FA029A039B10EB020B43EB0108F1
:102C600029E708460B69029198470028CAD00299C3
:102C7000D1E9002314E700BFFFFFFFFFFFFFFFFFC5
:102C800000800B40183D002000000B40B1290010CF
:102C90002DE9F84F364C25692DB1BDE8F84F0A21D2
:102CA0003448FFF739BEDFF8E4800321404600F0E6
:102CB000DFF90326C4F80C80FFF734FC4FF0504CCA
:102CC0002D4B267003442361DCF800300F21637024
:102CD000636961801D834FF00405A3F878504FF0BD
:102CE0000505A3F890504FF00605A3F8A8504FF043
:102CF00007050E214FF6FF7208274FF00A0EA3F8C2
:102D0000C0504FF001094FF00C0C4FF0020B4FF088
:102D1000090A0D204FF00B05A3F868111749A2808E
:102D2000A3F808E1A160A3F848B0A3F8F0A0A3F8C5
:102D30002051A3F838C1A3F85001A3F83090A3F8AC
:102D40006060A3F8D8701A800D4B3046C8F8207028
:102D50000C49DC60FFF754FC49463046FFF72AFC7B
:102D6000094B0A211F640348BDE8F84FFFF7D4BDA3
:102D7000BC0900207C3F002070180020FFFF1000DD
:102D8000183D0020B129001000200B4000000B402E
:102D90000146F0B50069EFF3108772B6D0E8CF5F57
:102DA0000124002DFAD1C0E8454F002DF6D1BFF324
:102DB0005F8FB1F902E04C690EEB4E0CBEF1000FD3
:102DC0004FEACC0504EBCC0C3DDB605B0026488071
:102DD0000869C0E88F6F87F31088BCF80200CCE95F
:102DE00002230130C0F30E00012838BF0120059BEB
:102DF000ACF80200CCF81030069B40EA0E40CCF84C
:102E000014300B69EFF3108272B6D3E8CFCF0127ED
:102E1000BCF1000FF9D1C3E84C7FBCF1000FF4D135
:102E2000BFF35F8F8B886353A1F804E00B69C3E89D
:102E30008F6F82F310880122CB68097803F5015364
:102E40008A405A60F0BD00230A69C2E88F3F87F3C9
:102E500010884FF0FF30F0BD03464089B0EB214FA2
:102E600037DD58690A1402EB420210B500EBC200CC
:102E70001C69EFF3108C72B6D4E8CFEF0122BEF1DB
:102E8000000FF9D1C4E84E2FBEF1000FF4D1BFF30B
:102E90005F8F428889B292B28A4207D000221B69B2
:102EA000C3E88F2F8CF31088002010BD42F400423D
:102EB00042800121002218699971C0E88F2F8CF39C
:102EC00010881C78DA68084602F50153A140596061
:102ED00010BD0020704700BF2DE9F041861F41F171
:102EE000FF35B04271EB050338BF002682B038BF12
:102EF000354604460F4600F0D5F8301A65EB01035D
:102F0000012873F1000306DA2046394602B0BDE815
:102F1000F04100F003B900F0C5F8864265EB01010D
:102F200000290ADB0021174B3246009316482B4636
:102F30000191FFF72DFF0028E6DB4FF0000C13484E
:102F4000134A436A9D4204D8816AB142DCD29D4251
:102F5000DAD11368EFF3108172B6D3E8CF8F5FF048
:102F6000010EB8F1000FF8D1C3E848EFB8F1000F37
:102F7000F3D1BFF35F8F1368C3E88FCF81F310885D
:102F800020BFDEE771290010BC09002000000B40C3
:102F90007C3F002010B5044600F084F84FF47A73AB
:102FA0004FF0FF3C6FF00042E4FB0301BDE810402E
:102FB000844572EB01033CBF60461146FFF78CBFAE
:102FC000F0B506460D4683B0EFF30584E4B2002C5D
:102FD00035D1244F3A78F96804328B6A51F82220AF
:102FE000D21AC31A934207D320BF1F4B586AA84274
:102FF0001FD2002003B0F0BD00F054F8864265EB0C
:103000000101002911DB194B3846CDE90034324665
:103010002B46FFF7BDFE011E07DD134B5A6AAA427D
:1030200019D220BF0F48FFF717FF0F4B586AA8426D
:10303000DFD39B6A9E4209D8012003B0F0BD0A4B42
:10304000586A8842D5D39B6AB342F5D2401B18BF59
:10305000012003B0F0BD9B6A9E42E3D9AA42E1D1B0
:10306000DFE700BFBC09002000000B407129001001
:1030700010B4054B054C064AA04214BF1846581C14
:103080005DF8044BFFF7D4B9A420002000800B406A
:103090001CC200100346416A0A46986A596A8A426D
:1030A000FAD17047034B596A0A46986A596A9142A5
:1030B000FAD1704700000B4010B4174A536A9C467F
:1030C000946A536A6345FAD1001959414FF00002DE
:1030D00028BF01220346CAB10F4B596A4B1C08BFD7
:1030E0000B4608D04FF0FF310B460B48426A8A422C
:1030F000FCD38A4207D1084A02E0506A884202D1D2
:10310000906A9842F9D35DF8044B7047024A526ABC
:103110009142EAD8EDE700BF00000B40074A536A2E
:103120009942FCD8994207D1044B02E05A6A914275
:1031300002D19A6A8242F9D3704700BF00000B4067
:10314000F8B5054606200E4600F0E4F8002842D007
:10315000354A3648954214BF4FF080624FF0006206
:10316000334B344902601A608C6832EA0404FBD1A4
:103170002D4B4FF48071EB1AB3FA83F32E4A5B099F
:10318000062022F8131000F0C5F8C300B3FBF6F3D5
:103190000133DA0920D1402601216962AA622F6B2E
:1031A000FB0722D42B46002253F82C1F062003F5E0
:1031B000805422602F6300F0ADF840F20131032209
:1031C0008000B0FBF6F0EB6A83F0700303F07E033F
:1031D00023602963AA64F8BD4FF6FE718A421BD9A9
:1031E00022464FF6FF71154ED7E740F2013205F542
:1031F00040531A636B6AAC6A062004EB831400F038
:1032000089F80F4BA402A3FB0023DB0A0021B4FBC7
:10321000F3F0FFF751FFC5E7C3F34503114603EB96
:1032200082161A46B9E700BF00800740002002401E
:103230000030024000000240803F0020C0FF3F00FD
:10324000757B2B8F00EB400C4FEA8C0C0CF1804C03
:103250000CF5803CF0B51646DCF80420051FB2F5ED
:10326000803F38BF4FF48032EDB238BFCCF8042035
:10327000012D2AD94FF40067254C0CF540521760F8
:1032800054F82020B2B9DCF80020012D82EA461261
:1032900002F0E0020CF5805632602AD94FF400614A
:1032A00044F820304FF480330CF500521160CCF814
:1032B0000430F0BD6769B7FBF2FE0EF1010E0EEBB4
:1032C0004E0EBEF1030EFCD2DDE70129D2D103245C
:1032D0000CF540521460DCF80820D207FBD5DCF86E
:1032E00000200B4C82EA461202F0E0020CF58056F8
:1032F00032600122DCF800504D4005F003053560D6
:1033000002FA01F1DCF808200A42FBD0C6E700BF50
:10331000A8200020014B53F820007047A82000206F
:1033200070B4039D04682D0345EA03451B4B002C34
:10333000B3FBF1F3B2FBF3F61FDB194A194B9042D2
:1033400014BF4FF480424FF40042174C1A6003F54B
:1033500080531A60A36832EA0303FBD1212200F5EF
:1033600040530433016086601A600268002AFCDA68
:103370000822C5601A6070BC7047036803F03F0301
:103380008B42DAD18368C3F30B03B342D5D1C36850
:1033900003F4EE23AB42D0D1EDE700BF001BB70032
:1033A000008005400020024000000240012300EBA5
:1033B0004000800000F1804000F58410416003600F
:1033C000704700BF002370B5DB8A04460D4600221B
:1033D00042E800F2520254BF1021042144F252206C
:1033E000984786462B462246F446BDE870400A219F
:1033F0004FF48170604700BF0023DB8A002242E85F
:1034000000F2520201D4102118470421184700BFCE
:1034100008B503460846191E02DB1AB140F0300019
:10342000FFF7D0FF40F02000FAE700BF034AD2F8D0
:103430002838002BFBD0BFF35F8F704700000E4091
:103440000021044B044ABFF35F8F43F8041B9342EF
:10345000F9D170470C080E402C080E4010B42F20F4
:103460004FF42A64054A064B06491460D06019607F
:103470005368002BFCDA5DF8044B70470080044071
:1034800000A0044000B0FA00704700BF08B5014832
:10349000FEF79AFF40C2001038B5054C054DAC420E
:1034A00004D254F8043B9847AC42FAD338BD00BF6D
:1034B000F8BF001038C0001038B5054C054DAC42BF
:1034C00004D254F8043B9847AC42FAD338BD00BF4D
:1034D00024C0001038C0001010B40748074C084B37
:1034E000084A094904601A608B6832EA0303FBD179
:1034F0005DF8044B704700BF002002407F3BEFEFB8
:1035000000300240F6FFF30300000240044BDB6C86
:10351000B3F5004F03D14FF48022024BDA647047B9
:1035200000001150002011504FF0E022044BD2F85F
:10353000881D0B43C2F8883D10EE3004704700BF71
:10354000030330006FF06041044B054A1960936833
:10355000DB4333F06043FAD1704700BF00300240D4
:103560000000024010B545F25320FFF745FFBDE8CB
:10357000104003460420184710B545F25320FFF7CA
:103580003BFFBDE81040034601201847FEF7DEBFB1
:1035900010B5054B054C4FF488721846A16803F02E
:1035A00059FFA06010BD00BF0000002000ED00E04A
:1035B000002370B52B4C82B0C4F88430FFF74EFF67
:1035C0000122294BDA63636C012BFCD10321264ACB
:1035D000244B11639C6B012CFCD10226052521464E
:1035E0000523224A22480096FFF79AFE21462B46E1
:1035F000204A21480095FFF793FE0022042031461F
:103600001E4BFFF71FFE2146284600221C4BFFF7EA
:1036100019FE0022082011461A4BFFF713FE002264
:1036200009201146174BFFF70DFE00220620114618
:10363000134BFFF707FE0022114B07201146FFF73F
:1036400001FE0420FFF766FE00240F4BA3FB0035AC
:10365000AD0CE0B229460134FFF7A8FE062CF8D1E4
:1036600002B070BD0000014000300140002F6859D9
:1036700000000540008C864700800540001BB70015
:1036800080D1F008006CDC0283DE1B4386B003B4FB
:1036900051FC0804CDE9020151FC0904CDE9040103
:1036A00051EC0A04CDE9060103BCF047BDE8005027
:1036B0004EEC00C4BDE800504EEC01C4BDE8005023
:1036C0004EEC02C400BD000000B5FFF7DFFF02E0D2
:1036D00010FE30F4F8D441EC100443EC112400EE59
:1036E000010410EE010480EE200451EC1004704738
:1036F00000B5FFF7CBFF02E010FE30F4F8D441EC48
:10370000100443EC112400EE010410EE210480EEBD
:10371000200451EC3004704700B5FFF7B7FF02E01A
:1037200010FE30F4F8D410B541EC100443EC112431
:1037300051EC040453EC0524A0FB024C5FF0000E96
:10374000E0FB03CEE1FB02CE4CEC20440024E1FB85
:1037500003E444EC30E480EE200451EC5004BDE876
:103760001040704700B5FFF791FF02E010FE30F403
:10377000F8D441EC100443EC112451EC2104A0FBDB
:1037800001126FEA820252FB100052FB12F252FB4E
:103790001000A0EBD07C53EC04245CFB13F153EC41
:1037A0001524A1FB022001FB030053EC4424A2EBEF
:1037B000000050FB1CF24FEA111312EB017043EBB7
:1037C000E27140EA515020EA915020F0070053EC9A
:1037D0007524A0FB023C53EC752400FB03CC01FBD9
:1037E00002CC53EC0424ACEB824C40EA5C70A0F1B8
:1037F000010041EC400480EE200451EC700470475D
:1038000000B5FFF743FF02E010FE30F4F8D441ECBE
:10381000100480EE220410EEB204704700B5FFF7EA
:1038200035FF02E010FE30F4F8D440EC700400EEF6
:10383000010410EE210480EE200451EC30047047A6
:1038400000B5FFF723FF02E010FE30F4F8D440EC9F
:10385000600400EE010410EE210480EE200451EC1F
:103860003004704700B5FFF711FF02E010FE30F49E
:10387000F8D441EC800400EE010410EE010480EE67
:10388000400410EE1304704700B5FFF7FFFE02E09E
:1038900010FE30F4F8D441EC800400EE010410EE88
:1038A000010480EE400410EE3304704700B5FFF7CA
:1038B000EDFE02E010FE30F4F8D441EC100443ECCD
:1038C000112400EE010410EE3004C0F300707047C4
:1038D00000B5FFF7DBFE02E010FE30F4F8D441EC57
:1038E000100443EC112400EE010410EE3004C0F388
:1038F0008070704700B5FFF7C9FE02E010FE30F49B
:10390000F8D443EC102441EC110400EE010410EE55
:1039100030F48CBF01200020704700BF00B5FFF7D6
:10392000B5FE02E010FE30F4F8D443EC102441EC74
:10393000110400EE010410EE30F42CBF0120002031
:10394000704700BF00B5FFF7A1FE02E010FE30F4A3
:10395000F8D441EC100443EC112400EE010410EE05
:1039600030F42CBF01200020704700BF00B5FFF7E6
:103970008DFE02E010FE30F4F8D441EC100443EC6C
:10398000112400EE010410EE30F48CBF0120002061
:10399000704700BF000000000000000000000000B1
:1039A000DB60BE284A059193F4D5097F70374D7DC1
:1039B00066A5D83610E4104FEA58947F58F1AEF758
:1039C0008E1BC96DB8749390BA4B92018764748250
:1039D000C77A873FCF694A2C7D8D20BA21D1AE4B63
:1039E000091C673A90DF17AD8E75644E7DCED460AA
:1039F000E21721270E4A7EEFFF25FEC7036681F7F7
:103A000062C4CBFB479B82D6B39F4DDB6DC2F2C92C
:103A1000D98FD1D38BFA97A7B1EE495D5E7CF9FAC5
:103A20007DCE41CFBAA494E2ECD7FE9A4257E34749
:103A300011CC8015174B02F01F054FF00107AF4066
:103A40005FEA6218A7FB00450026E7FB015603EB7F
:103A50008803D3F81090A9FB06A7D3F80C90A9FB14
:103A600005A8E9FB6678D3F8089009FB0688E9FB0E
:103A70000578A9FB04A6D3F8049009FB0588E9FBA7
:103A80000478D3F8009009FB0488BF1948F10008B6
:103A9000704700009839001050EA013208BF41F029
:103AA000004141F400210B00020070470BB90020D7
:103AB0000021002240F20003C3F6F0731CF0020F55
:103AC0001CBF1046194670470022002300245FF0F7
:103AD000004504E14DF804CD5FF0000C0CF1040C3E
:103AE00002F10402FFF7A6FF98EAE879B9F1807FB6
:103AF00002D2BCF1400FF1D197EAE87741F2A61665
:103B0000C0F64636A9FB06A04DF21156C4F67E0655
:103B1000A7FB06A1E9FB66010626E7FB060109FBF8
:103B20000611DCF1200A57D421FA0CF320FA0CF22A
:103B300001FA0AF942EA0902A2FB0394A2FB0395E7
:103B4000E3FB6345A4FB0596A4FB0597E5FB6567CE
:103B5000F60856EA47764FF0AA39A6FB0967D4EB78
:103B6000070675EB45075FEA2739360B56EB075614
:103B700059F17F6717F14057C0B4A0FB0592A1FB34
:103B80000493E1FB6523A2FB0596A3FB0497E3FBEB
:103B900065674FF0AA39A2FB09A40025E3FB09459C
:103BA000641955F100054FF08839A6FB0923B4EBE1
:103BB000131465F10005B0EB940061EBA501B0EBC7
:103BC000857061F10001CCF58064A4F10E0400F071
:103BD00082F9BDE8C0100CE0CCF58064A4F10E04BD
:103BE00000F079F95DF804CB002640F20007C3F637
:103BF000F0775FEAD87868F3000C5FEA6C090FD4BD
:103C00005FEA690906D31CF0040C57EA4C713000D6
:103C1000BDE8F0879CEA9C0C51EACC71BDE8F087C6
:103C20001CF0040497EA4477C0B4A6E03CB500F069
:103C300004F830BC03C40CC530BD11F0004C5FEA81
:103C40005C0C5CF0004C06E05FEA517C1CF0040C5C
:103C500001E05FF0020CC1F30A53A3F2FF32B2F5A8
:103C6000806F3FF419AF12F1200FFFF61FAF012351
:103C700063F31F512DE9F04702F10C02FFF7DAFE62
:103C80005FEA987444F10004A8EB84780CEB440CD0
:103C90004CEAD87C97EAE87798EAE878B8F5800F9C
:103CA000FFF418AF41F2A619C0F64639A8FB09A0E7
:103CB0004DF21159C4F67E09A7FB09A1E8FB690181
:103CC0005FF00609E7FB090108FB0911B1F1007F6C
:103CD000FFF4FAAECA0E7C4B03EB02133CCB801A06
:103CE000994110D45FEA6C0636D476101CD200F0ED
:103CF0006CF800F0AFF800F0ECF89CEA9C0C51EA8C
:103D0000CC71BDE8F0875FEA6C0649D4761017D213
:103D100000F058F800F0ACF800F0D8F89CEA9C0CE1
:103D200051EACC71BDE8F08700F04FF800F0AFF831
:103D300000F0CCF81CF0040C51EA4C71BDE8F0879F
:103D400000F040F800F0B2F800F0C3F81CF0040CEA
:103D500051EA4C71BDE8F08700F037F8FCB400F090
:103D600096F800F0B3F81CF0040491EA4471FCBC2E
:103D700003B400F06FF800F0ACF89CEA5C0494EA3D
:103D80009C0491EAC4711CF0020F1DBF02460B4651
:103D900003BC0CBC1CF0804491EA4401BDE8F087F0
:103DA00000F010F8FCB400F081F800F092F81CF07C
:103DB000040491EA4471FCBC03B400F059F800F02B
:103DC00085F8DAE7404261EB4101A1FB0167A0FB06
:103DD00001237F084FEA3606F21847F10003A3FBE0
:103DE0000076E2FB01760027E3FB01674FF05538D0
:103DF000A6FB08964FF00009E7FB086916EB0906D9
:103E000059F10007861B71EB07074FEA033040EAC0
:103E10001250A0FB0009E9FB0809A9FB01084FF0BB
:103E20003330A8FB000858FB11FA4AF6AA20C2F664
:103E3000AA2060FB1A99B2EB491273EBD9635AFBC3
:103E400011FA4FF0C3606AFB108816EB481657EB67
:103E5000D8677047A2FB04804FF00001E3FB040128
:103E6000A6FB0583E7FB0534181A64EB01017047D4
:103E7000A2FB04804FF00001E3FB0401A6FB0583D5
:103E80006442E7FB0534181844EB01017047A2FBBC
:103E900005804FF00001E3FB0501A6FB04836D42A2
:103EA000E7FB0435181845EB01017047A2FB0580BC
:103EB0004FF00001E3FB0501A6FB0483E7FB04359B
:103EC000181A65EB01017047243F0010404261EB76
:103ED000410140F2F334B1FA81F20C2A0CD21532CE
:103EE00011FA02F3C2F12002D04021FA02F1224479
:103EF000584141EB0251704769B1C2F12B0230FACF
:103F000002F3C2F12002914090401943A4EB020257
:103F100001EB0251704701004FF00000A4F12004B2
:103F2000D9D170470B5C7325A974F50329B5FA0143
:103F30000015FC7FEB2FAA0054D9440CC8D22106EF
:103F40001F60DA7F3663E842CFD3D9133C5EEA09BB
:103F5000F0889D7F2FC46D04D9860A1C1F17FE0DA3
:103F6000D09E3B7FA79B50EC3EF5EB23BCE7E611D0
:103F7000C7EFBD7ED21C9C03B212F12B46F5DC15B7
:103F800049771E7ECA057A3DF493F23314C0CB19EB
:103F90009CAC5F7DA0A0EF7A1D32193C1D22C61D8E
:103FA0002F2F7D7CB50FFB1270EF5044530CC121B5
:103FB0003522787B5C8D6B4745A0F14B18DC6A2578
:103FC00016AD687AC14069576DD9EA53391636295A
:103FD0003C2D2F79DFEA4ED38942B35BD639E02CF2
:103FE0002526E0776950EA31D9071164C0D3C4307F
:103FF00070625876CB5667F3B3A2FD6B1C7E6834B3
:10400000227AC7740EED7A2F3175E073CCE7FA3758
:1040100027111C73C08EC4FC0E79147C0EA7A33B21
:104020008ECD417113B7043B8F7B5483D489D23E2C
:10403000EBD8856F9A365B13D96F0B8CD4EA944218
:10404000A3EF516D5F52CA4A26D33994706E0A4667
:104050004005236B8340C441340B0E9C3DB048495E
:1040600007EFF168BF086DA3FD6179A485F2B14C3B
:104070009D847A663616F8C8D247E5AB1E22A24F59
:104080002F623664ADC9C8D0E1ADFEB32470C3520F
:1040900086AFA461730E73646A35FEBB28F0C55504
:1040A000A3A3025FC6A58CB055B912C40892BA5832
:1040B000A394415C90005354372DB0CB19F46E5B40
:1040C000D88E9359367C8DA16E3CAAD325022E5EE4
:1040D000FC32AF56D0C7A248F619FFDB3253F3606B
:1040E0007EED9253949AAD7AE1AD22E4CADF8E63FD
:1040F000C72B7350FF15EF19BD85FBEBBB18FA6595
:10410000C7615C4DBD960F7E494B4CF4F7816F68DB
:10411000E617024AEB09EF1DFDBD4DFCC4D2B26AA1
:1041200013E4B4460022002950DA404261EB410119
:10413000C9B1B1FA81F30B3B17D4D3F1200C30FA9B
:104140000CFC9840994051EA0C011A44524202F288
:10415000324201EB025141F0004140F2FE739A42BB
:1041600038BF704721E011467EE003F1210310FAC9
:1041700003FCA3F1010301FA03FCC3F1200320FABD
:1041800003F021FA03F140EA0C00A3EB020202F271
:10419000324214D050F1000041EB025141F0004195
:1041A00040F2FE739A4238BF70474FF00001A8BF3B
:1041B000C7F6F0714FF00000704700217047EBD355
:1041C00050F1000020F00100E6E70022B9B1B1FA99
:1041D00081F30B3B16D4D3F1200C30FA0CFC984041
:1041E000994051EA0C011A44524202F2324201EB68
:1041F000025140F2FE739A4238BF704720E01146E8
:1042000000F066B803F1210310FA03FCA3F10103E7
:1042100001FA03FCC3F1200320FA03F021FA03F1B1
:1042200040EA0C00A3EB020202F2324212D050F13B
:10423000000041EB025140F2FE739A4238BF7047D2
:104240004FF00001A8BFC7F6F0714FF000007047B3
:1042500000217047EDD350F1000020F00100E8E7A5
:10426000002880F235804042B0FA80F30B3B11D435
:10427000984001EB0302524202F2124200EB02515B
:1042800041F000414FF0000040F2FE739A4238BF07
:10429000704713E0C3F1000330FA03FCC3F12002BE
:1042A0009040A3EB010202F212420CEB025141F0EA
:1042B000004140F2FE739A4238BF70474FF0004110
:1042C000A8BFCFF6F0714FF0000070470021704793
:1042D00060B3B0FA80F30B3B0FD4984001EB0302BC
:1042E000524202F2124200EB02514FF0000040F243
:1042F000FE739A4238BF704710E05B4230FA03FC0D
:10430000C3F120029040A3EB010202F212420CEB37
:10431000025140F2FE739A4238BF70474FF00001DD
:10432000A8BFC7F6F0714FF000007047002170473A
:104330000022A2F232425FEA215CACF10103A1EB60
:1043400003515B0513F5800F32D212EB535210D498
:104350000B2A36DA9140D2F1200330FA03F31943E5
:104360009040BCF1000FA8BF7047404261EB410193
:10437000704720320EDD01FA02F3D2F12002D14063
:10438000D0401843BCF1000FA8BF7047404261EB1A
:1043900041017047524282F3050231FA02F00021D6
:1043A000BCF1000FA8BF7047404261EB410170476C
:1043B00002D000200021704750EA013118BF4FF0B1
:1043C000000C6FF0004101EBDC716FEAEC7070479C
:1043D00038B50446094807F007FE204602F05CF9AC
:1043E0000546064807F0FCFD2DB1054B2C449C42C8
:1043F00001D8284638BD0348FDF7E6FFB410002079
:10440000000008204CC2001038B505460C460A488A
:1044100007F0EAFD2846214602F004FC054606485E
:1044200007F0DEFD2DB1054B2C449C4201D82846F7
:1044300038BD0348FDF7C8FFB41000200000082075
:104440004CC2001038B50446054D284607F0CCFD97
:10445000204602F029F92846BDE8384007F0C0BDE3
:10446000B41000209A4238BF88547047704700BF8C
:104470002DE9F04F83B09946DDE90DAB0F9B8846DF
:1044800011469A07074616D1DA453AD20C460D4630
:10449000ABEB0A060E4422464B464146202001342F
:1044A000B847B442F7D12946BAF1000F08D12046E7
:1044B00003B0BDE8F08F0C46BAF1000F10D00E46E5
:1044C00055460C9B2E449A440191721B4B46013D6C
:1044D00041461AF8010D3446B847002DF5D101992F
:1044E0000F9B9B07E3D5651AAB45E0D922464B46A7
:1044F000414620200135B8475D4504F10104F5D35C
:10450000D5E7BAF1000FDAD10C46D0E72DE9F04F2C
:104510000F9FDDF824E017F0020F0A9C9DF82C9005
:104520000E9DDDE90C8629D1002D6FD1B44225D234
:10453000202C07F0010B00F0128104F1FF3C4FF03A
:10454000300AF44401E0202C7AD00134A6420CF861
:1045500001AFF8D8BBF1000F10D0AC420ED2202C26
:1045600074D004F1FF3C4FF0300AF44401E0202CF9
:1045700029D00134AC420CF801AFF8D117F0100F7C
:104580003AD017F4806F28D11CBBB8F1100F00F09F
:10459000CA80B8F1020F00F0D48030248EF80040B9
:1045A0000124B9F1000F67D17E0740F1AA802B26C4
:1045B0000EF804600134CDE90B57CDE909E4BDE8FC
:1045C000F04FFFF755BFFC0640F189807C0535D4DC
:1045D0002024A6426AD0AC4268D0B8F1100F00F097
:1045E0008780B8F1020F5AD0202CE4D0264601343F
:1045F0004FF0300C0EF806C0202CD2D1CDE90B576D
:10460000CDE909E4BDE8F04FFFF732BF17F0010B29
:104610003ED0B9F1000F47D117F00C0F44D1B4428E
:104620009BD2202C89D1202D10D8FC0657D57C0593
:1046300055D4202E00F0B980202D10D02024CCE7B6
:10464000BBF1000F00F0A580202DBCD9FC0646D59B
:104650007C0544D4202E00F0A880202D3FD12C468C
:104660001F26B8F1100F7FD0B8F1020FC0D14FF064
:10467000620C0EF806C0B7E72D260EF80460013470
:10468000CDE90B57CDE909E4BDE8F04FFFF7F0BEE7
:10469000B442BFF473AF202C7FF44FAFD6E7202C89
:1046A00089D026460134E2E7013DB8E7661ED8D13D
:1046B000B8F1100F64D0B8F1020F7FF46EAF62262C
:1046C0008EF80060302644468EF80160B9F1000F84
:1046D0003FF46AAFD0E7B8F1100F7FF46CAF20243D
:1046E000CDE90B57CDE909E4BDE8F04FFFF7C0BEB7
:1046F000BE060ED4202CF2D078260EF804600134C9
:1047000072E73E077FF557AF20260EF804600134AC
:1047100051E7202CE3D04FF0580C0EEB040686F83E
:1047200000C0013460E7BE0617D558248EF800405B
:1047300030248EF801400224B9F1000F3FF434AF69
:104740009AE762248EF8004030248EF8014002245B
:10475000B9F1000F3FF428AF8EE77824F2E7BBF100
:10476000000F7FF462AF71E717F0200F0CBF4FF01E
:10477000780C4FF0580CA61E0EF806C0013C35E729
:10478000BC06EAD558248EF8004030248EF801404B
:10479000DDE717F0100F3FF40EAF17F4806F9AD1DA
:1047A000202E7FF418AF1F265BE734461F2658E7FC
:1047B00000B9704701F0F4BA10B1D1E900311847DF
:1047C000704700BF000000002DE9F04F9FB09DED45
:1047D000287BDDE92AA558EC177B83461E460D9100
:1047E000109243463A46384641468DED087B2C9C54
:1047F000FFF760F8002840F0D880384641464FF077
:10480000FF32754BFFF7B6F8002840F0CE803846EF
:1048100041464FF0FF326FF48013FFF76FF8002826
:1048200040F0C380DDE90878002238464146002385
:10483000FFF764F8002840F0C081CDE90A78DDE98F
:104840000A2390461F4614F4806308BF4FF0060AFF
:10485000139304F4006258EA0703119240F0C080F9
:10486000002A00F0A2819FED5A7B00278DED0E7B80
:104870004FF00009BA45CCBFAAEB070A4FF0000A77
:104880004F46C8BF0AF1FF3A44F480644D4594BFD7
:104890004FF00008A5EB090814F00203119304D0AF
:1048A000B9F1000F18BF4FF000083FB1DDE90A0170
:1048B000DDE90E23FEF75AFFCDE90A01DDE9080123
:1048C00000220023FFF71AF830B1DDE90A010246A1
:1048D00001F10043CDE90A239DED0A7BCDE902A851
:1048E000DDF834A024F4006304938DED007B33469F
:1048F00051465846109A00F097F98046B9F1000FDA
:104900004FD014F0200F024600F1010433460CBFD3
:10491000652045205146D84709F1FF3087EAE77CFA
:104920000DF1580900224B46DFF8B080ACEBE77C74
:104930004FEAD77E01E0202A10D0E246A8FB0C7196
:10494000C90801EB8107ACEB47073037BAF1090F13
:104950008C4602F1010203F8017BECD80523059097
:10496000069300200A230D9FCDE90330CDE9012EE7
:104970003346224639465846CDF80090FFF7C6FD2B
:10498000119B80466BB1109BC41AA54209D94246BF
:104990003346394620200134D847A54208F10108A2
:1049A000F5D840461FB0BDE8F08F9DED087B33463B
:1049B0005846109A0D998DED287BCDE92B54CDF8F2
:1049C000A8A01FB0BDE8F04F00F02EB9AFF30080F3
:1049D0000000000000000000FFFFEF7FCDCCCCCC3A
:1049E000C7F30A50A0F2FF30FEF71CFF8AA3D3E9F9
:1049F0000023FEF795FE8AA3D3E90023FEF768FEA5
:104A0000C7F31307CDE90E0147F07F51404600225E
:104A10007B4B41F44011FEF76FFE6BA3D3E90023FB
:104A2000FEF77EFE02460B46DDE90E01FEF750FE64
:104A3000FEF71CFF0746FEF7F5FE65A3D3E900234A
:104A400080468946FEF76CFE00226E4BFEF740FE64
:104A5000FEF70CFF03464946404612935EA3D3E996
:104A60000023FEF75DFE804612988946FEF7DAFEC7
:104A70005BA3D3E90023FEF753FE02460B464046F4
:104A80004946FEF739FE02460B4680468946FEF748
:104A900047FE42464B46CDE90E0140464946FEF7E9
:104AA00017FE0022CDE91401DDE90E01564BFEF799
:104AB0005DFE0022554BFEF70BFE02460B46DDE97C
:104AC0000E01FEF753FE0022514BFEF701FE024697
:104AD0000B46DDE90E01FEF749FE42464B46804695
:104AE000894600204FF08041FEF706FE02460B4645
:104AF00040464946FEF7ECFD02460B46DDE914014F
:104B0000FEF734FE0022434BFEF7E2FD129B00222B
:104B100003F2FF3C4FEA0C53FEF702FE8046894643
:104B2000DDE90A0142464B46CDE90E89FEF7E6FE75
:104B300068BB4346494607F16302C62A119A8CBFF7
:104B40004FF005094FF00409002A3FF49FAE0B43D4
:104B50003FF48EAEDDE90A0123A3D3E90023FEF77B
:104B6000F5FE48B1DDE90A0121A3D3E90023FEF7F0
:104B7000C5FE00287FF47CAEBAF1000F3FF486AE8C
:104B8000139B002B3FF482AE0AF1FF3A7EE600222F
:104B90001E4B40464946FEF7E9FD0A4601460346DC
:104BA000CDE90E12013F1146C5E79FED137B174675
:104BB0004FF004098DED0E7B68E608F100430A977B
:104BC0000B933CE6AFF3008061436F63A787D23F4E
:104BD00071A379094F930A401655B5BBB16B0240DA
:104BE000EF39FAFE422EE63F2D431CEBE2361A3F28
:104BF0000000000080842E41000000000000000042
:104C00000000F83F0000E03F00002C40000024407E
:104C1000000018400000F03FFB799F501344D33F41
:104C2000B3C8608B288AC63F2DE9F04F97B0DDE905
:104C30002089CDE90401DDE9224BCDE90623404678
:104C400042464B464946DDF890A0FEF733FE002869
:104C500040F0C581404649464FF0FF326FF4801363
:104C6000FEF74CFE002840F01D81404649464FF0BB
:104C7000FF32C14BFEF77EFE002840F0E380B8A370
:104C8000D3E9002340464946FEF774FE002840F071
:104C9000CB80B5A3D3E9002340464946FEF72EFE5C
:104CA000002840F0C1804046494600220023FEF71C
:104CB00025FE002840F0E0801AF480650D9000F099
:104CC000E980092C40F296810EAB1A460C933021F4
:104CD0000023A4F109050133202B02F8011BA4EBEA
:104CE000030600F03A81AB42F5D19FED9D7B8DED3F
:104CF000087B49464046FEF7B9FD0446FEF792FDA3
:104D000002460B4640464946FEF7F6FCDDE908231D
:104D1000FEF706FD02460B46CDE90A23FEF7B8FD75
:104D20000746FEF791FD02460B46DDE90A01FEF754
:104D3000E3FC02460B46CDE90A2300228F4BFEF727
:104D400019FE002800F0DB8001373846FEF77CFDB5
:104D5000DDE90823FEF7FAFD08B100270134002E33
:104D600040F0B1802046FEF75DFD02460B4640460E
:104D70004946FEF7C1FC0022804B06460F46FEF76F
:104D8000BDFD40B93046394600227C4BFEF7F2FDAE
:104D9000002800F015810C9B691E7948194410E029
:104DA00080FB0462C3EBA20303EB8302A4EB420487
:104DB00004F1300201351C4601F8012F002B00F0F0
:104DC000AB80202D4FEAE473EAD10AF00303012BF4
:104DD0001CD1BBF1000F19D00D9B002B40F0F980C6
:104DE0001AF00C0F40F0F580AB4540F2D380202D37
:104DF0000BD030220C996B1E0B4401355D4503F836
:104E0000012F00F08D80202DF7D12025DDE906232C
:104E1000DDE904010C9CCDE902BA01950094FFF78D
:104E200027FB17B0BDE8F08FCDE92089DDE9062327
:104E3000DDE90401CDE923BA229417B0BDE8F04FB3
:104E4000FFF7C2BC4F4DCDF88CA00AF0040ABAF1AE
:104E5000000F4D4C18BF2C46DDE90623DDE90401A7
:104E600020940CBF03240424CDF888B0219417B0FB
:104E7000BDE8F04FFFF7FCBA4B4642460020002148
:104E8000FEF73AFC01231AF48065804689460D93AB
:104E90007FF417AF9FED367B0EAB06268DED087BBA
:104EA0000C9326E70424DDE90623DDE90401374DF0
:104EB000CDF88CA0CDF888B02095219417B0BDE82E
:104EC000F04FFFF7D5BA0C9B681EDFF8C4C018443A
:104ED0000DE0ACFB0721C90801EB8102A7EB420200
:104EE0003032092F00F8012F27D90F461D46202DFB
:104EF00005F1010306F1FF36EBD120254BE7002237
:104F0000DDE90A011D4BFEF7F9FC00287FF427AF0D
:104F1000002F5AD1013722E70AF00303012B75D085
:104F2000202D3FF473AF0D9BBBB32D2205F1580329
:104F30006B4403F8202C013568E7202BDDD0AEB39D
:104F40000C9A1E441544302201E0B3422ED00133A6
:104F5000202B05F8012FF8D1CFE71D46C5E600BF8D
:104F60000000000065CDCD410000000065CDCDC141
:104F70000000000080842E41FFFFEF7F0000E03F33
:104F80006766666694C200109CC20010A4C200103E
:104F9000CDCCCCCC202D3FF439AF1AF0040F0DD17D
:104FA0001AF0080F3FF432AF2022BFE72E2103F1A1
:104FB00058026A4402F8201C5D1CECE62B22B5E77F
:104FC000E3077FF5E8AE0134E5E6FA077FF5C7AE03
:104FD000A0E70BF1FF3BAB453FF609AFA0E7032489
:104FE000DDE90623DDE904010A4DCDF88CA0CDF8FA
:104FF00088B061E7084B264603EBC40393ED007BC2
:105000000EAB8DED087B00250C9372E6BBF1000F13
:1050100086D0E1E6A0C2001058D200102DE9F04F72
:105020009A469BB0249C964D0B94964C0B1E18BF31
:10503000834625609AF80000934C0A9308BFA34664
:105040000992002800F0BC824FF000090AE04A46AD
:10505000099B0A9909F10109D8479AF8000000282C
:1050600000F0CE8025280AF1010AF0D10023524633
:1050700012F8010BA0F1200110290AD8DFE801F095
:105080004009093C090909090909093809340909CC
:105090003000A0F13001092940F28C802A2800F06C
:1050A000F58000210C912E2800F099800027A0F1B6
:1050B000680112292DD8DFE811F057012C005101A9
:1050C0002C0045012C002C002C002C002C002C0066
:1050D0002C0027002C002C002C002C002C0027007A
:1050E000924643F00103C2E7924643F00203BEE753
:1050F000924643F00403BAE7924643F01003B6E742
:10510000924643F00803B2E79AF8010043F4807333
:1051100001326728924600F28280242840F2C6803D
:10512000A0F12502422A00F2C180DFE812F05F01FF
:10513000BF00BF00BF00BF00BF00BF00BF00BF0077
:10514000BF00BF00BF00BF00BF00BF00BF00BF0067
:10515000BF00BF00BF00BF00BF00BF00BF00BF0057
:10516000BF00BF00BF00BF00BF00BF00BF002601DF
:1051700045012601BF00BF00BF00BF00BF00BF0048
:10518000BF00BF00BF00BF00BF00BF00BF00BF0027
:10519000BF00BF00D301BF00BF00BF00BF00BF0002
:1051A000BF00BF00BF00BF00D3016701D3012601CC
:1051B00045012601002100E0013201EB810100EBF5
:1051C000410110789246A0F13004092CA1F1300180
:1051D000F2D92E280C9102F101027FF467AF9AF800
:1051E00001001146A0F13006092E43F4806340F21D
:1051F00031812A2800F03E8192460027013256E78D
:105200004C46099B994501D303F1FF394A460020DA
:10521000099B0A99D84720461BB0BDE8F08FA0F142
:105220006902D2B20F2A41D8012649F241019640C3
:105230000E4040F001810A2A3FD0072A36D10B9C4C
:1052400054F8042B002A00F0288143F021010DF1CD
:10525000480E704603E0202E00F029811A4602F025
:105260000F052B46092D94BF303337330F2A00F832
:10527000013B06F101064FEA1213ECD817E100BF1B
:105280001D500010F03C00206D4400100B9C9AF85B
:10529000010054F8045B9246002DBDBF694243F003
:1052A00002030C910C950B940132FCE64A46099BD3
:1052B0000A9909F10109D847CFE60B9951F8048BF7
:1052C00098F800201046002F40F0E18072B16FF096
:1052D000010C0CF1010C4646C44401E0664503D0C4
:1052E00016F8014F002CF9D1A6EB080613F4806CD8
:1052F00002D0BE4228BF3E4613F0020400F0878170
:10530000002A00F02B81BCF1000F00F041810B94CA
:105310000D964A46DDE909540E464F4408E02B46F7
:105320002146D84718F8010F09F1010910B14A4682
:105330004F45F4D131460B9C0D9E002C40F00E8160
:105340000B918AE69AF801006C287FF4DFAE9AF898
:10535000020043F440730AF10302DAE69AF801000E
:1053600043F400730132D4E69AF80100682800F093
:10537000208143F080030132CBE6672800F0E7800C
:10538000472800F00081452800F0FF800B9C049323
:105390000C9B0734CDE9027324F007031C46DDE9BA
:1053A0000931F4E802674A465846CDE900670B9494
:1053B000FFF70AFA814650E646280B9C08BF43F0E7
:1053C000200304930C9B0734CDE9027324F00703F8
:1053D0001C46DDE90931F4E802674A465846CDE942
:1053E00000670B94FFF720FC814636E64A462520ED
:1053F000099B0A9909F10109D8472EE60B9A9C07E7
:1054000002F1040709F1010640F1E6801078099BDA
:105410004A460A99D8470C9B012B40F22C81DDE9C2
:105420000954994432462B46214620200136D8475C
:105430004E45F7D10B9710E66F2800F08B8040F2B5
:105440006581782800F008814FF00A0823F01003E6
:10545000C44647E0002707EB870700EB4700A0F1B1
:10546000300711F8010FA0F13002092AF3D98A465A
:105470004A1C1CE60B9C9AF8020054F8047B0AF1C3
:10548000020A0AF101020B9427EAE7770FE6002AE5
:105490003FF42CAF07F1FF3C1BE723F0100113F49E
:1054A000806241F021013FF4D2AE0DF1480E082395
:1054B0001020059300234A46CDE902300691584654
:1054C000DDE90931CDE900E60497FFF71FF80B94F9
:1054D0008146C2E5582879D0622840F051824FF0C9
:1054E0000208C44613F480606DD123F00C0313F45A
:1054F000007240F0C2800B9904310D9113F4807159
:1055000040F02E825E060B9A40F1AA801278002AA3
:1055100040F0DA8023F01003002800F0D580114617
:105520000DF1480E06930C9BCDF80CC0CDE9047329
:10553000019100234A4602935846DDE90931CDF82E
:1055400000E0FEF7E3FF0D9B81460B9385E543F4F6
:1055500000631BE74FF00808C446C3E70C9B4C46AA
:10556000B3427FF6EDAE0F464B44A3EB0609DDE9EF
:10557000096522463346294620200134D8474C4548
:10558000F7D13946DCE643F4006343F02003FDE63F
:105590000F460B94DDE909544A462B462146D8476D
:1055A00018F8010F09F101090028F5D139460B9CC3
:1055B000C3E69AF8020043F0C0030AF10302A8E52B
:1055C000044681461DE623F00D0390E74FF01008D6
:1055D00043F02003C44685E70C9B012B45D9DDE948
:1055E00009544E4609F1FF38984432462B4621466D
:1055F00020200136D8474645F7D10C9B32469944C6
:105600000B9B1878DDE90931D8470B9725E50C9BF2
:10561000B34240F2EE81CDE90D48DDE909548846F8
:105620004B449E1BCDF82CC04A462B4621462020D9
:1056300009F10109D847B145F6D14146DDF8388076
:105640000C9BDDF82CC00D9C98F800205E1C1046C9
:10565000002A7FF458AE73E64FF01008C44641E7C5
:105660001D064CBF1288126851E713464A46187847
:10567000DDE90931D847B146DCE60B9C073424F05C
:1056800007042246656852F8084B0B9254EA05025B
:1056900040F02C8123F01003002800F02781002621
:1056A0000DF1480E06930C9B4A46CDE90473002386
:1056B000CDE900E6CDF80CC002935846DDE909318A
:1056C000FEF724FF8146C8E413F0200F14BF4120E9
:1056D00061200DF1480E7646A0F10A0803E020296A
:1056E0003FF420AF2246B2FBFCF40CFB1425E8B2D9
:1056F000092D00F130058ABF4044E8B2C0B26245CE
:1057000006F8010B01F10101E9D20BE723F01002C9
:1057100069280D9240F06F8113F4806204D04FF439
:10572000806223F011030D930D9B13F4007640D19A
:105730000B9B03F104080D9B13F4807040F09880DC
:10574000590640F1C6800B9B19780C46CB0F0029F7
:1057500000F0B98022460DF1480E74461646DFF877
:10576000A0C201E020280FD03546ACFB0621C908B5
:1057700001EB8102A6EB42023032092D0E4600F108
:10578000010004F8012BEDD80D9ACDE90103069232
:105790000C9ACDE904720A234A4603935846DDE980
:1057A0000931CDF800E0FEF7B1FECDF82C8081463E
:1057B00053E40B9C073424F0070421460846636831
:1057C00050F8081BDC0F0B9051EA030000F0C38077
:1057D0000A46191E48DB13460DF1480EF446002612
:1057E000CDE90E94DFF8188201E0202E2DD05A1852
:1057F00042F10002A8FB025929F0030505EB9905C7
:10580000521B1C469B1A61F1000508464FF0CC3133
:1058100001FB03F108FB0511A3FB08531944052301
:1058200005F00109A9FB03399B180A2C03F1300389
:105830004FEA550570F100000CF8013B06F1010636
:1058400045EAC1734FEA5101CFD2DDE90E940D9BB9
:105850004A4606930C9BCDE90164CDE904730A2303
:10586000CDF800E0039328E7524261EB4101B2E733
:105870000B9B1968CB0F002900F0AB8081EAE17225
:10588000A2EBE1720DF1480E7046DFF874C101E041
:10589000202E10D01546ACFB0241C90801EB810453
:1058A000A2EB440404F13002092D00F8012B06F1AB
:1058B00001060A46ECD80D9ACDE9016306920C9ACE
:1058C000CDE9047267E7002A3FF445AF0DF1480EB9
:1058D0005AE713F0800F0B9B00F08180B3F90010A2
:1058E00081EAE174A4EBE174A4B22FE713F0200F76
:1058F00014BF412261220DF1480E0A3ACDE90D97FD
:10590000CDF844B000267746F3469146CDE90F3CEA
:1059100003E0202E17D004460D46294642460023B8
:10592000204606F059FBD2B2092A02F1300388BFA3
:1059300002EB09034445DBB275F1000507F8013BB2
:1059400006F10106E5D2DE46DDE90D97DDE90F3C03
:10595000DDF844B0A6E6002A47D1134611463BE7DE
:105960000B990968A1B923F0100388B10DF1480E15
:1059700006930C9BCDF80CC0CDE904730192D8E5D9
:1059800013F480627FF4CBAE23F010030D93CBE6CB
:1059900013F0200F14BF412061200DF1480E764610
:1059A000A0F10A0802E0202AE2D02146B1FBFCF473
:1059B0000CFB1415E8B2092D00F130058ABF4044F4
:1059C000E8B2C0B2614506F8010B02F10102EAD269
:1059D000CEE7002A3FF456AF0DF1480E6BE7196889
:1059E00081EAE174A4EBE174B0E600260DF1480E03
:1059F0002DE701362BE64FF00A081346C44671E541
:105A0000CDCCCCCC0EB410B585B007AC54F8043B6B
:105A100001464FF0FF32009404480394FFF7FEFA6A
:105A200005B0BDE8104003B0704700BF65440010EA
:105A300070B594461E4605460C4684B04FF0FF32C2
:105A4000634602A900960348CDE90254FFF7E6FA3F
:105A500004B070BDB94700100FB410B50E4B84B040
:105A600006A91C6851F8043B03915CB100914FF00A
:105A7000FF3202A90948A047012004B0BDE8104048
:105A800004B07047184600F0CDF9204604B0BDE8D8
:105A9000104004B0704700BFF03C0020B147001038
:105AA00010B5094B84B01C684CB1034600914FF00F
:105AB000FF3203A90548A047012004B010BD00F043
:105AC000B1F9204604B010BDF03C0020B1470010F1
:105AD00000BEFDE7074A0346106838B10649034493
